{"abi":[{"inputs":[],"stateMutability":"nonpayable","type":"constructor"},{"inputs":[{"internalType":"string","name":"_name","type":"string"},{"internalType":"string","name":"_email","type":"string"},{"internalType":"string","name":"_phone","type":"string"},{"internalType":"string","name":"_publicKey","type":"string"}],"name":"createUser","outputs":[{"internalType":"uint256","name":"rowNumber","type":"uint256"}],"stateMutability":"nonpayable","type":"function"},{"inputs":[{"internalType":"address","name":"userAddress","type":"address"}],"name":"deleteUser","outputs":[],"stateMutability":"nonpayable","type":"function"},{"inputs":[],"name":"getUserCount","outputs":[{"internalType":"uint256","name":"userCount","type":"uint256"}],"stateMutability":"view","type":"function"},{"inputs":[],"name":"manager","outputs":[{"internalType":"address","name":"","type":"address"}],"stateMutability":"view","type":"function"},{"inputs":[{"internalType":"address","name":"userAddress","type":"address"},{"internalType":"string","name":"_name","type":"string"},{"internalType":"string","name":"_email","type":"string"},{"internalType":"string","name":"_phone","type":"string"},{"internalType":"string","name":"_publicKey","type":"string"}],"name":"updateUser","outputs":[{"internalType":"bool","name":"success","type":"bool"}],"stateMutability":"nonpayable","type":"function"},{"inputs":[{"internalType":"uint256","name":"","type":"uint256"}],"name":"userList","outputs":[{"internalType":"address","name":"","type":"address"}],"stateMutability":"view","type":"function"},{"inputs":[{"internalType":"address","name":"","type":"address"}],"name":"users","outputs":[{"internalType":"string","name":"name","type":"string"},{"internalType":"string","name":"email","type":"string"},{"internalType":"string","name":"phone","type":"string"},{"internalType":"string","name":"publicKey","type":"string"},{"internalType":"address","name":"userAddress","type":"address"}],"stateMutability":"view","type":"function"}],"devdoc":{"kind":"dev","methods":{},"version":1},"evm":{"assembly":"    /* \"main\":60:2039  contract Contract {... */\n  mstore(0x40, 0x80)\n    /* \"main\":355:408  constructor() {... */\n  callvalue\n  dup1\n  iszero\n  tag_1\n  jumpi\n  0x00\n  dup1\n  revert\ntag_1:\n  pop\n    /* \"main\":390:400  msg.sender */\n  caller\n    /* \"main\":380:387  manager */\n  0x00\n  dup1\n    /* \"main\":380:400  manager = msg.sender */\n  0x0100\n  exp\n  dup2\n  sload\n  dup2\n  0xffffffffffffffffffffffffffffffffffffffff\n  mul\n  not\n  and\n  swap1\n  dup4\n  0xffffffffffffffffffffffffffffffffffffffff\n  and\n  mul\n  or\n  swap1\n  sstore\n  pop\n    /* \"main\":60:2039  contract Contract {... */\n  dataSize(sub_0)\n  dup1\n  dataOffset(sub_0)\n  0x00\n  codecopy\n  0x00\n  return\nstop\n\nsub_0: assembly {\n        /* \"main\":60:2039  contract Contract {... */\n      mstore(0x40, 0x80)\n      callvalue\n      dup1\n      iszero\n      tag_1\n      jumpi\n      0x00\n      dup1\n      revert\n    tag_1:\n      pop\n      jumpi(tag_2, lt(calldatasize, 0x04))\n      shr(0xe0, calldataload(0x00))\n      dup1\n      0x9f4216e8\n      gt\n      tag_10\n      jumpi\n      dup1\n      0x9f4216e8\n      eq\n      tag_6\n      jumpi\n      dup1\n      0xa87430ba\n      eq\n      tag_7\n      jumpi\n      dup1\n      0xada44796\n      eq\n      tag_8\n      jumpi\n      dup1\n      0xb5cb15f7\n      eq\n      tag_9\n      jumpi\n      jump(tag_2)\n    tag_10:\n      dup1\n      0x481c6a75\n      eq\n      tag_3\n      jumpi\n      dup1\n      0x5c60f226\n      eq\n      tag_4\n      jumpi\n      dup1\n      0x6f7fcddb\n      eq\n      tag_5\n      jumpi\n    tag_2:\n      0x00\n      dup1\n      revert\n        /* \"main\":85:107  address public manager */\n    tag_3:\n      tag_11\n      tag_12\n      jump\t// in\n    tag_11:\n      mload(0x40)\n      tag_13\n      swap2\n      swap1\n      tag_14\n      jump\t// in\n    tag_13:\n      mload(0x40)\n      dup1\n      swap2\n      sub\n      swap1\n      return\n        /* \"main\":1313:1508  function deleteUser(address userAddress) public {... */\n    tag_4:\n      tag_15\n      0x04\n      dup1\n      calldatasize\n      sub\n      dup2\n      add\n      swap1\n      tag_16\n      swap2\n      swap1\n      tag_17\n      jump\t// in\n    tag_16:\n      tag_18\n      jump\t// in\n    tag_15:\n      stop\n        /* \"main\":525:954  function createUser(string memory _name, string memory _email, string memory _phone, string memory _publicKey) public returns (uint rowNumber) {... */\n    tag_5:\n      tag_19\n      0x04\n      dup1\n      calldatasize\n      sub\n      dup2\n      add\n      swap1\n      tag_20\n      swap2\n      swap1\n      tag_21\n      jump\t// in\n    tag_20:\n      tag_22\n      jump\t// in\n    tag_19:\n      mload(0x40)\n      tag_23\n      swap2\n      swap1\n      tag_24\n      jump\t// in\n    tag_23:\n      mload(0x40)\n      dup1\n      swap2\n      sub\n      swap1\n      return\n        /* \"main\":321:346  address[] public userList */\n    tag_6:\n      tag_25\n      0x04\n      dup1\n      calldatasize\n      sub\n      dup2\n      add\n      swap1\n      tag_26\n      swap2\n      swap1\n      tag_27\n      jump\t// in\n    tag_26:\n      tag_28\n      jump\t// in\n    tag_25:\n      mload(0x40)\n      tag_29\n      swap2\n      swap1\n      tag_14\n      jump\t// in\n    tag_29:\n      mload(0x40)\n      dup1\n      swap2\n      sub\n      swap1\n      return\n        /* \"main\":273:314  mapping(address => UserData) public users */\n    tag_7:\n      tag_30\n      0x04\n      dup1\n      calldatasize\n      sub\n      dup2\n      add\n      swap1\n      tag_31\n      swap2\n      swap1\n      tag_17\n      jump\t// in\n    tag_31:\n      tag_32\n      jump\t// in\n    tag_30:\n      mload(0x40)\n      tag_33\n      swap6\n      swap5\n      swap4\n      swap3\n      swap2\n      swap1\n      tag_34\n      jump\t// in\n    tag_33:\n      mload(0x40)\n      dup1\n      swap2\n      sub\n      swap1\n      return\n        /* \"main\":962:1305  function updateUser(address userAddress, string memory _name, string memory _email, string memory _phone, string memory _publicKey) public returns(bool success) {... */\n    tag_8:\n      tag_35\n      0x04\n      dup1\n      calldatasize\n      sub\n      dup2\n      add\n      swap1\n      tag_36\n      swap2\n      swap1\n      tag_37\n      jump\t// in\n    tag_36:\n      tag_38\n      jump\t// in\n    tag_35:\n      mload(0x40)\n      tag_39\n      swap2\n      swap1\n      tag_40\n      jump\t// in\n    tag_39:\n      mload(0x40)\n      dup1\n      swap2\n      sub\n      swap1\n      return\n        /* \"main\":416:517  function getUserCount() public view returns(uint userCount) {... */\n    tag_9:\n      tag_41\n      tag_42\n      jump\t// in\n    tag_41:\n      mload(0x40)\n      tag_43\n      swap2\n      swap1\n      tag_24\n      jump\t// in\n    tag_43:\n      mload(0x40)\n      dup1\n      swap2\n      sub\n      swap1\n      return\n        /* \"main\":85:107  address public manager */\n    tag_12:\n      0x00\n      dup1\n      sload\n      swap1\n      0x0100\n      exp\n      swap1\n      div\n      0xffffffffffffffffffffffffffffffffffffffff\n      and\n      dup2\n      jump\t// out\n        /* \"main\":1313:1508  function deleteUser(address userAddress) public {... */\n    tag_18:\n        /* \"main\":1403:1404  0 */\n      0x00\n        /* \"main\":1380:1405  userAddress != address(0) */\n      0xffffffffffffffffffffffffffffffffffffffff\n      and\n        /* \"main\":1380:1391  userAddress */\n      dup2\n        /* \"main\":1380:1405  userAddress != address(0) */\n      0xffffffffffffffffffffffffffffffffffffffff\n      and\n      sub\n        /* \"main\":1372:1425  require(userAddress != address(0), \"Invalid address\") */\n      tag_45\n      jumpi\n      mload(0x40)\n      0x08c379a000000000000000000000000000000000000000000000000000000000\n      dup2\n      mstore\n      0x04\n      add\n      tag_46\n      swap1\n      tag_47\n      jump\t// in\n    tag_46:\n      mload(0x40)\n      dup1\n      swap2\n      sub\n      swap1\n      revert\n    tag_45:\n        /* \"main\":1443:1448  users */\n      0x01\n        /* \"main\":1443:1461  users[userAddress] */\n      0x00\n        /* \"main\":1449:1460  userAddress */\n      dup3\n        /* \"main\":1443:1461  users[userAddress] */\n      0xffffffffffffffffffffffffffffffffffffffff\n      and\n      0xffffffffffffffffffffffffffffffffffffffff\n      and\n      dup2\n      mstore\n      0x20\n      add\n      swap1\n      dup2\n      mstore\n      0x20\n      add\n      0x00\n      keccak256\n      0x00\n        /* \"main\":1436:1461  delete users[userAddress] */\n      dup1\n      dup3\n      add\n      0x00\n      tag_48\n      swap2\n      swap1\n      tag_49\n      jump\t// in\n    tag_48:\n      0x01\n      dup3\n      add\n      0x00\n      tag_50\n      swap2\n      swap1\n      tag_49\n      jump\t// in\n    tag_50:\n      0x02\n      dup3\n      add\n      0x00\n      tag_51\n      swap2\n      swap1\n      tag_49\n      jump\t// in\n    tag_51:\n      0x03\n      dup3\n      add\n      0x00\n      tag_52\n      swap2\n      swap1\n      tag_49\n      jump\t// in\n    tag_52:\n      0x04\n      dup3\n      add\n      exp(0x0100, 0x00)\n      dup2\n      sload\n      swap1\n      0xffffffffffffffffffffffffffffffffffffffff\n      mul\n      not\n      and\n      swap1\n      sstore\n      pop\n      pop\n        /* \"main\":1472:1500  remove(indexOf(userAddress)) */\n      tag_53\n        /* \"main\":1479:1499  indexOf(userAddress) */\n      tag_54\n        /* \"main\":1487:1498  userAddress */\n      dup3\n        /* \"main\":1479:1486  indexOf */\n      tag_55\n        /* \"main\":1479:1499  indexOf(userAddress) */\n      jump\t// in\n    tag_54:\n        /* \"main\":1472:1478  remove */\n      tag_56\n        /* \"main\":1472:1500  remove(indexOf(userAddress)) */\n      jump\t// in\n    tag_53:\n        /* \"main\":1313:1508  function deleteUser(address userAddress) public {... */\n      pop\n      jump\t// out\n        /* \"main\":525:954  function createUser(string memory _name, string memory _email, string memory _phone, string memory _publicKey) public returns (uint rowNumber) {... */\n    tag_22:\n        /* \"main\":652:666  uint rowNumber */\n      0x00\n        /* \"main\":679:698  address userAddress */\n      dup1\n        /* \"main\":752:767  block.timestamp */\n      timestamp\n        /* \"main\":769:779  msg.sender */\n      caller\n        /* \"main\":735:780  abi.encodePacked(block.timestamp, msg.sender) */\n      add(0x20, mload(0x40))\n      tag_58\n      swap3\n      swap2\n      swap1\n      tag_59\n      jump\t// in\n    tag_58:\n      mload(0x40)\n      0x20\n      dup2\n      dup4\n      sub\n      sub\n      dup2\n      mstore\n      swap1\n      0x40\n      mstore\n        /* \"main\":725:781  keccak256(abi.encodePacked(block.timestamp, msg.sender)) */\n      dup1\n      mload\n      swap1\n      0x20\n      add\n      keccak256\n        /* \"main\":709:783  uint160(bytes20(keccak256(abi.encodePacked(block.timestamp, msg.sender)))) */\n      0x60\n      shr\n        /* \"main\":679:784  address userAddress = address(uint160(bytes20(keccak256(abi.encodePacked(block.timestamp, msg.sender))))) */\n      swap1\n      pop\n        /* \"main\":816:872  UserData(_name, _email, _phone, _publicKey, userAddress) */\n      mload(0x40)\n      dup1\n      0xa0\n      add\n      0x40\n      mstore\n      dup1\n        /* \"main\":825:830  _name */\n      dup8\n        /* \"main\":816:872  UserData(_name, _email, _phone, _publicKey, userAddress) */\n      dup2\n      mstore\n      0x20\n      add\n        /* \"main\":832:838  _email */\n      dup7\n        /* \"main\":816:872  UserData(_name, _email, _phone, _publicKey, userAddress) */\n      dup2\n      mstore\n      0x20\n      add\n        /* \"main\":840:846  _phone */\n      dup6\n        /* \"main\":816:872  UserData(_name, _email, _phone, _publicKey, userAddress) */\n      dup2\n      mstore\n      0x20\n      add\n        /* \"main\":848:858  _publicKey */\n      dup5\n        /* \"main\":816:872  UserData(_name, _email, _phone, _publicKey, userAddress) */\n      dup2\n      mstore\n      0x20\n      add\n        /* \"main\":860:871  userAddress */\n      dup3\n        /* \"main\":816:872  UserData(_name, _email, _phone, _publicKey, userAddress) */\n      0xffffffffffffffffffffffffffffffffffffffff\n      and\n      dup2\n      mstore\n      pop\n        /* \"main\":795:800  users */\n      0x01\n        /* \"main\":795:813  users[userAddress] */\n      0x00\n        /* \"main\":801:812  userAddress */\n      dup4\n        /* \"main\":795:813  users[userAddress] */\n      0xffffffffffffffffffffffffffffffffffffffff\n      and\n      0xffffffffffffffffffffffffffffffffffffffff\n      and\n      dup2\n      mstore\n      0x20\n      add\n      swap1\n      dup2\n      mstore\n      0x20\n      add\n      0x00\n      keccak256\n        /* \"main\":795:872  users[userAddress] = UserData(_name, _email, _phone, _publicKey, userAddress) */\n      0x00\n      dup3\n      add\n      mload\n      dup2\n      0x00\n      add\n      swap1\n      dup2\n      tag_60\n      swap2\n      swap1\n      tag_61\n      jump\t// in\n    tag_60:\n      pop\n      0x20\n      dup3\n      add\n      mload\n      dup2\n      0x01\n      add\n      swap1\n      dup2\n      tag_62\n      swap2\n      swap1\n      tag_61\n      jump\t// in\n    tag_62:\n      pop\n      0x40\n      dup3\n      add\n      mload\n      dup2\n      0x02\n      add\n      swap1\n      dup2\n      tag_63\n      swap2\n      swap1\n      tag_61\n      jump\t// in\n    tag_63:\n      pop\n      0x60\n      dup3\n      add\n      mload\n      dup2\n      0x03\n      add\n      swap1\n      dup2\n      tag_64\n      swap2\n      swap1\n      tag_61\n      jump\t// in\n    tag_64:\n      pop\n      0x80\n      dup3\n      add\n      mload\n      dup2\n      0x04\n      add\n      exp(0x0100, 0x00)\n      dup2\n      sload\n      dup2\n      0xffffffffffffffffffffffffffffffffffffffff\n      mul\n      not\n      and\n      swap1\n      dup4\n      0xffffffffffffffffffffffffffffffffffffffff\n      and\n      mul\n      or\n      swap1\n      sstore\n      pop\n      swap1\n      pop\n      pop\n        /* \"main\":883:891  userList */\n      0x02\n        /* \"main\":897:908  userAddress */\n      dup2\n        /* \"main\":883:909  userList.push(userAddress) */\n      swap1\n      dup1\n      0x01\n      dup2\n      sload\n      add\n      dup1\n      dup3\n      sstore\n      dup1\n      swap2\n      pop\n      pop\n      0x01\n      swap1\n      sub\n      swap1\n      0x00\n      mstore\n      keccak256(0x00, 0x20)\n      add\n      0x00\n      swap1\n      swap2\n      swap1\n      swap2\n      swap1\n      swap2\n      0x0100\n      exp\n      dup2\n      sload\n      dup2\n      0xffffffffffffffffffffffffffffffffffffffff\n      mul\n      not\n      and\n      swap1\n      dup4\n      0xffffffffffffffffffffffffffffffffffffffff\n      and\n      mul\n      or\n      swap1\n      sstore\n      pop\n        /* \"main\":945:946  1 */\n      0x01\n        /* \"main\":927:935  userList */\n      0x02\n        /* \"main\":927:942  userList.length */\n      dup1\n      sload\n      swap1\n      pop\n        /* \"main\":927:946  userList.length - 1 */\n      tag_66\n      swap2\n      swap1\n      tag_67\n      jump\t// in\n    tag_66:\n        /* \"main\":920:946  return userList.length - 1 */\n      swap2\n      pop\n      pop\n        /* \"main\":525:954  function createUser(string memory _name, string memory _email, string memory _phone, string memory _publicKey) public returns (uint rowNumber) {... */\n      swap5\n      swap4\n      pop\n      pop\n      pop\n      pop\n      jump\t// out\n        /* \"main\":321:346  address[] public userList */\n    tag_28:\n      0x02\n      dup2\n      dup2\n      sload\n      dup2\n      lt\n      tag_68\n      jumpi\n      0x00\n      dup1\n      revert\n    tag_68:\n      swap1\n      0x00\n      mstore\n      keccak256(0x00, 0x20)\n      add\n      0x00\n      swap2\n      pop\n      sload\n      swap1\n      0x0100\n      exp\n      swap1\n      div\n      0xffffffffffffffffffffffffffffffffffffffff\n      and\n      dup2\n      jump\t// out\n        /* \"main\":273:314  mapping(address => UserData) public users */\n    tag_32:\n      mstore(0x20, 0x01)\n      dup1\n      0x00\n      mstore\n      keccak256(0x00, 0x40)\n      0x00\n      swap2\n      pop\n      swap1\n      pop\n      dup1\n      0x00\n      add\n      dup1\n      sload\n      tag_70\n      swap1\n      tag_71\n      jump\t// in\n    tag_70:\n      dup1\n      0x1f\n      add\n      0x20\n      dup1\n      swap2\n      div\n      mul\n      0x20\n      add\n      mload(0x40)\n      swap1\n      dup2\n      add\n      0x40\n      mstore\n      dup1\n      swap3\n      swap2\n      swap1\n      dup2\n      dup2\n      mstore\n      0x20\n      add\n      dup3\n      dup1\n      sload\n      tag_72\n      swap1\n      tag_71\n      jump\t// in\n    tag_72:\n      dup1\n      iszero\n      tag_73\n      jumpi\n      dup1\n      0x1f\n      lt\n      tag_74\n      jumpi\n      0x0100\n      dup1\n      dup4\n      sload\n      div\n      mul\n      dup4\n      mstore\n      swap2\n      0x20\n      add\n      swap2\n      jump(tag_73)\n    tag_74:\n      dup3\n      add\n      swap2\n      swap1\n      0x00\n      mstore\n      keccak256(0x00, 0x20)\n      swap1\n    tag_75:\n      dup2\n      sload\n      dup2\n      mstore\n      swap1\n      0x01\n      add\n      swap1\n      0x20\n      add\n      dup1\n      dup4\n      gt\n      tag_75\n      jumpi\n      dup3\n      swap1\n      sub\n      0x1f\n      and\n      dup3\n      add\n      swap2\n    tag_73:\n      pop\n      pop\n      pop\n      pop\n      pop\n      swap1\n      dup1\n      0x01\n      add\n      dup1\n      sload\n      tag_76\n      swap1\n      tag_71\n      jump\t// in\n    tag_76:\n      dup1\n      0x1f\n      add\n      0x20\n      dup1\n      swap2\n      div\n      mul\n      0x20\n      add\n      mload(0x40)\n      swap1\n      dup2\n      add\n      0x40\n      mstore\n      dup1\n      swap3\n      swap2\n      swap1\n      dup2\n      dup2\n      mstore\n      0x20\n      add\n      dup3\n      dup1\n      sload\n      tag_77\n      swap1\n      tag_71\n      jump\t// in\n    tag_77:\n      dup1\n      iszero\n      tag_78\n      jumpi\n      dup1\n      0x1f\n      lt\n      tag_79\n      jumpi\n      0x0100\n      dup1\n      dup4\n      sload\n      div\n      mul\n      dup4\n      mstore\n      swap2\n      0x20\n      add\n      swap2\n      jump(tag_78)\n    tag_79:\n      dup3\n      add\n      swap2\n      swap1\n      0x00\n      mstore\n      keccak256(0x00, 0x20)\n      swap1\n    tag_80:\n      dup2\n      sload\n      dup2\n      mstore\n      swap1\n      0x01\n      add\n      swap1\n      0x20\n      add\n      dup1\n      dup4\n      gt\n      tag_80\n      jumpi\n      dup3\n      swap1\n      sub\n      0x1f\n      and\n      dup3\n      add\n      swap2\n    tag_78:\n      pop\n      pop\n      pop\n      pop\n      pop\n      swap1\n      dup1\n      0x02\n      add\n      dup1\n      sload\n      tag_81\n      swap1\n      tag_71\n      jump\t// in\n    tag_81:\n      dup1\n      0x1f\n      add\n      0x20\n      dup1\n      swap2\n      div\n      mul\n      0x20\n      add\n      mload(0x40)\n      swap1\n      dup2\n      add\n      0x40\n      mstore\n      dup1\n      swap3\n      swap2\n      swap1\n      dup2\n      dup2\n      mstore\n      0x20\n      add\n      dup3\n      dup1\n      sload\n      tag_82\n      swap1\n      tag_71\n      jump\t// in\n    tag_82:\n      dup1\n      iszero\n      tag_83\n      jumpi\n      dup1\n      0x1f\n      lt\n      tag_84\n      jumpi\n      0x0100\n      dup1\n      dup4\n      sload\n      div\n      mul\n      dup4\n      mstore\n      swap2\n      0x20\n      add\n      swap2\n      jump(tag_83)\n    tag_84:\n      dup3\n      add\n      swap2\n      swap1\n      0x00\n      mstore\n      keccak256(0x00, 0x20)\n      swap1\n    tag_85:\n      dup2\n      sload\n      dup2\n      mstore\n      swap1\n      0x01\n      add\n      swap1\n      0x20\n      add\n      dup1\n      dup4\n      gt\n      tag_85\n      jumpi\n      dup3\n      swap1\n      sub\n      0x1f\n      and\n      dup3\n      add\n      swap2\n    tag_83:\n      pop\n      pop\n      pop\n      pop\n      pop\n      swap1\n      dup1\n      0x03\n      add\n      dup1\n      sload\n      tag_86\n      swap1\n      tag_71\n      jump\t// in\n    tag_86:\n      dup1\n      0x1f\n      add\n      0x20\n      dup1\n      swap2\n      div\n      mul\n      0x20\n      add\n      mload(0x40)\n      swap1\n      dup2\n      add\n      0x40\n      mstore\n      dup1\n      swap3\n      swap2\n      swap1\n      dup2\n      dup2\n      mstore\n      0x20\n      add\n      dup3\n      dup1\n      sload\n      tag_87\n      swap1\n      tag_71\n      jump\t// in\n    tag_87:\n      dup1\n      iszero\n      tag_88\n      jumpi\n      dup1\n      0x1f\n      lt\n      tag_89\n      jumpi\n      0x0100\n      dup1\n      dup4\n      sload\n      div\n      mul\n      dup4\n      mstore\n      swap2\n      0x20\n      add\n      swap2\n      jump(tag_88)\n    tag_89:\n      dup3\n      add\n      swap2\n      swap1\n      0x00\n      mstore\n      keccak256(0x00, 0x20)\n      swap1\n    tag_90:\n      dup2\n      sload\n      dup2\n      mstore\n      swap1\n      0x01\n      add\n      swap1\n      0x20\n      add\n      dup1\n      dup4\n      gt\n      tag_90\n      jumpi\n      dup3\n      swap1\n      sub\n      0x1f\n      and\n      dup3\n      add\n      swap2\n    tag_88:\n      pop\n      pop\n      pop\n      pop\n      pop\n      swap1\n      dup1\n      0x04\n      add\n      0x00\n      swap1\n      sload\n      swap1\n      0x0100\n      exp\n      swap1\n      div\n      0xffffffffffffffffffffffffffffffffffffffff\n      and\n      swap1\n      pop\n      dup6\n      jump\t// out\n        /* \"main\":962:1305  function updateUser(address userAddress, string memory _name, string memory _email, string memory _phone, string memory _publicKey) public returns(bool success) {... */\n    tag_38:\n        /* \"main\":1109:1121  bool success */\n      0x00\n        /* \"main\":1165:1166  0 */\n      dup1\n        /* \"main\":1142:1167  userAddress != address(0) */\n      0xffffffffffffffffffffffffffffffffffffffff\n      and\n        /* \"main\":1142:1153  userAddress */\n      dup7\n        /* \"main\":1142:1167  userAddress != address(0) */\n      0xffffffffffffffffffffffffffffffffffffffff\n      and\n      sub\n        /* \"main\":1134:1187  require(userAddress != address(0), \"Invalid address\") */\n      tag_92\n      jumpi\n      mload(0x40)\n      0x08c379a000000000000000000000000000000000000000000000000000000000\n      dup2\n      mstore\n      0x04\n      add\n      tag_93\n      swap1\n      tag_47\n      jump\t// in\n    tag_93:\n      mload(0x40)\n      dup1\n      swap2\n      sub\n      swap1\n      revert\n    tag_92:\n        /* \"main\":1219:1275  UserData(_name, _email, _phone, _publicKey, userAddress) */\n      mload(0x40)\n      dup1\n      0xa0\n      add\n      0x40\n      mstore\n      dup1\n        /* \"main\":1228:1233  _name */\n      dup7\n        /* \"main\":1219:1275  UserData(_name, _email, _phone, _publicKey, userAddress) */\n      dup2\n      mstore\n      0x20\n      add\n        /* \"main\":1235:1241  _email */\n      dup6\n        /* \"main\":1219:1275  UserData(_name, _email, _phone, _publicKey, userAddress) */\n      dup2\n      mstore\n      0x20\n      add\n        /* \"main\":1243:1249  _phone */\n      dup5\n        /* \"main\":1219:1275  UserData(_name, _email, _phone, _publicKey, userAddress) */\n      dup2\n      mstore\n      0x20\n      add\n        /* \"main\":1251:1261  _publicKey */\n      dup4\n        /* \"main\":1219:1275  UserData(_name, _email, _phone, _publicKey, userAddress) */\n      dup2\n      mstore\n      0x20\n      add\n        /* \"main\":1263:1274  userAddress */\n      dup8\n        /* \"main\":1219:1275  UserData(_name, _email, _phone, _publicKey, userAddress) */\n      0xffffffffffffffffffffffffffffffffffffffff\n      and\n      dup2\n      mstore\n      pop\n        /* \"main\":1198:1203  users */\n      0x01\n        /* \"main\":1198:1216  users[userAddress] */\n      0x00\n        /* \"main\":1204:1215  userAddress */\n      dup9\n        /* \"main\":1198:1216  users[userAddress] */\n      0xffffffffffffffffffffffffffffffffffffffff\n      and\n      0xffffffffffffffffffffffffffffffffffffffff\n      and\n      dup2\n      mstore\n      0x20\n      add\n      swap1\n      dup2\n      mstore\n      0x20\n      add\n      0x00\n      keccak256\n        /* \"main\":1198:1275  users[userAddress] = UserData(_name, _email, _phone, _publicKey, userAddress) */\n      0x00\n      dup3\n      add\n      mload\n      dup2\n      0x00\n      add\n      swap1\n      dup2\n      tag_94\n      swap2\n      swap1\n      tag_61\n      jump\t// in\n    tag_94:\n      pop\n      0x20\n      dup3\n      add\n      mload\n      dup2\n      0x01\n      add\n      swap1\n      dup2\n      tag_95\n      swap2\n      swap1\n      tag_61\n      jump\t// in\n    tag_95:\n      pop\n      0x40\n      dup3\n      add\n      mload\n      dup2\n      0x02\n      add\n      swap1\n      dup2\n      tag_96\n      swap2\n      swap1\n      tag_61\n      jump\t// in\n    tag_96:\n      pop\n      0x60\n      dup3\n      add\n      mload\n      dup2\n      0x03\n      add\n      swap1\n      dup2\n      tag_97\n      swap2\n      swap1\n      tag_61\n      jump\t// in\n    tag_97:\n      pop\n      0x80\n      dup3\n      add\n      mload\n      dup2\n      0x04\n      add\n      exp(0x0100, 0x00)\n      dup2\n      sload\n      dup2\n      0xffffffffffffffffffffffffffffffffffffffff\n      mul\n      not\n      and\n      swap1\n      dup4\n      0xffffffffffffffffffffffffffffffffffffffff\n      and\n      mul\n      or\n      swap1\n      sstore\n      pop\n      swap1\n      pop\n      pop\n        /* \"main\":1293:1297  true */\n      0x01\n        /* \"main\":1286:1297  return true */\n      swap1\n      pop\n        /* \"main\":962:1305  function updateUser(address userAddress, string memory _name, string memory _email, string memory _phone, string memory _publicKey) public returns(bool success) {... */\n      swap6\n      swap5\n      pop\n      pop\n      pop\n      pop\n      pop\n      jump\t// out\n        /* \"main\":416:517  function getUserCount() public view returns(uint userCount) {... */\n    tag_42:\n        /* \"main\":460:474  uint userCount */\n      0x00\n        /* \"main\":494:502  userList */\n      0x02\n        /* \"main\":494:509  userList.length */\n      dup1\n      sload\n      swap1\n      pop\n        /* \"main\":487:509  return userList.length */\n      swap1\n      pop\n        /* \"main\":416:517  function getUserCount() public view returns(uint userCount) {... */\n      swap1\n      jump\t// out\n        /* \"main\":1516:1776  function indexOf(address searchFor) private view returns (uint256) {... */\n    tag_55:\n        /* \"main\":1574:1581  uint256 */\n      0x00\n        /* \"main\":1599:1608  uint256 i */\n      dup1\n        /* \"main\":1611:1612  0 */\n      0x00\n        /* \"main\":1599:1612  uint256 i = 0 */\n      swap1\n      pop\n        /* \"main\":1594:1739  for (uint256 i = 0; i < userList.length; i++) {... */\n    tag_100:\n        /* \"main\":1618:1626  userList */\n      0x02\n        /* \"main\":1618:1633  userList.length */\n      dup1\n      sload\n      swap1\n      pop\n        /* \"main\":1614:1615  i */\n      dup2\n        /* \"main\":1614:1633  i < userList.length */\n      lt\n        /* \"main\":1594:1739  for (uint256 i = 0; i < userList.length; i++) {... */\n      iszero\n      tag_101\n      jumpi\n        /* \"main\":1674:1683  searchFor */\n      dup3\n        /* \"main\":1659:1683  userList[i] == searchFor */\n      0xffffffffffffffffffffffffffffffffffffffff\n      and\n        /* \"main\":1659:1667  userList */\n      0x02\n        /* \"main\":1668:1669  i */\n      dup3\n        /* \"main\":1659:1670  userList[i] */\n      dup2\n      sload\n      dup2\n      lt\n      tag_103\n      jumpi\n      tag_104\n      tag_105\n      jump\t// in\n    tag_104:\n    tag_103:\n      swap1\n      0x00\n      mstore\n      keccak256(0x00, 0x20)\n      add\n      0x00\n      swap1\n      sload\n      swap1\n      0x0100\n      exp\n      swap1\n      div\n      0xffffffffffffffffffffffffffffffffffffffff\n      and\n        /* \"main\":1659:1683  userList[i] == searchFor */\n      0xffffffffffffffffffffffffffffffffffffffff\n      and\n      sub\n        /* \"main\":1655:1728  if (userList[i] == searchFor) {... */\n      tag_107\n      jumpi\n        /* \"main\":1711:1712  i */\n      dup1\n        /* \"main\":1704:1712  return i */\n      swap2\n      pop\n      pop\n      jump(tag_99)\n        /* \"main\":1655:1728  if (userList[i] == searchFor) {... */\n    tag_107:\n        /* \"main\":1635:1638  i++ */\n      dup1\n      dup1\n      0x01\n      add\n      swap2\n      pop\n      pop\n        /* \"main\":1594:1739  for (uint256 i = 0; i < userList.length; i++) {... */\n      jump(tag_100)\n    tag_101:\n      pop\n        /* \"main\":1749:1768  revert(\"Not Found\") */\n      mload(0x40)\n      0x08c379a000000000000000000000000000000000000000000000000000000000\n      dup2\n      mstore\n      0x04\n      add\n      tag_108\n      swap1\n      tag_109\n      jump\t// in\n    tag_108:\n      mload(0x40)\n      dup1\n      swap2\n      sub\n      swap1\n      revert\n        /* \"main\":1516:1776  function indexOf(address searchFor) private view returns (uint256) {... */\n    tag_99:\n      swap2\n      swap1\n      pop\n      jump\t// out\n        /* \"main\":1784:2036  function remove(uint index) private {... */\n    tag_56:\n        /* \"main\":1847:1855  userList */\n      0x02\n        /* \"main\":1847:1862  userList.length */\n      dup1\n      sload\n      swap1\n      pop\n        /* \"main\":1839:1844  index */\n      dup2\n        /* \"main\":1839:1862  index < userList.length */\n      lt\n        /* \"main\":1831:1886  require(index < userList.length, \"Index out of bounds\") */\n      tag_111\n      jumpi\n      mload(0x40)\n      0x08c379a000000000000000000000000000000000000000000000000000000000\n      dup2\n      mstore\n      0x04\n      add\n      tag_112\n      swap1\n      tag_113\n      jump\t// in\n    tag_112:\n      mload(0x40)\n      dup1\n      swap2\n      sub\n      swap1\n      revert\n    tag_111:\n        /* \"main\":1902:1908  uint i */\n      0x00\n        /* \"main\":1911:1916  index */\n      dup2\n        /* \"main\":1902:1916  uint i = index */\n      swap1\n      pop\n        /* \"main\":1897:2004  for (uint i = index; i < userList.length - 1; i++) {... */\n    tag_114:\n        /* \"main\":1940:1941  1 */\n      0x01\n        /* \"main\":1922:1930  userList */\n      0x02\n        /* \"main\":1922:1937  userList.length */\n      dup1\n      sload\n      swap1\n      pop\n        /* \"main\":1922:1941  userList.length - 1 */\n      tag_117\n      swap2\n      swap1\n      tag_67\n      jump\t// in\n    tag_117:\n        /* \"main\":1918:1919  i */\n      dup2\n        /* \"main\":1918:1941  i < userList.length - 1 */\n      lt\n        /* \"main\":1897:2004  for (uint i = index; i < userList.length - 1; i++) {... */\n      iszero\n      tag_115\n      jumpi\n        /* \"main\":1977:1985  userList */\n      0x02\n        /* \"main\":1990:1991  1 */\n      0x01\n        /* \"main\":1986:1987  i */\n      dup3\n        /* \"main\":1986:1991  i + 1 */\n      tag_118\n      swap2\n      swap1\n      tag_119\n      jump\t// in\n    tag_118:\n        /* \"main\":1977:1992  userList[i + 1] */\n      dup2\n      sload\n      dup2\n      lt\n      tag_120\n      jumpi\n      tag_121\n      tag_105\n      jump\t// in\n    tag_121:\n    tag_120:\n      swap1\n      0x00\n      mstore\n      keccak256(0x00, 0x20)\n      add\n      0x00\n      swap1\n      sload\n      swap1\n      0x0100\n      exp\n      swap1\n      div\n      0xffffffffffffffffffffffffffffffffffffffff\n      and\n        /* \"main\":1963:1971  userList */\n      0x02\n        /* \"main\":1972:1973  i */\n      dup3\n        /* \"main\":1963:1974  userList[i] */\n      dup2\n      sload\n      dup2\n      lt\n      tag_123\n      jumpi\n      tag_124\n      tag_105\n      jump\t// in\n    tag_124:\n    tag_123:\n      swap1\n      0x00\n      mstore\n      keccak256(0x00, 0x20)\n      add\n      0x00\n        /* \"main\":1963:1992  userList[i] = userList[i + 1] */\n      0x0100\n      exp\n      dup2\n      sload\n      dup2\n      0xffffffffffffffffffffffffffffffffffffffff\n      mul\n      not\n      and\n      swap1\n      dup4\n      0xffffffffffffffffffffffffffffffffffffffff\n      and\n      mul\n      or\n      swap1\n      sstore\n      pop\n        /* \"main\":1943:1946  i++ */\n      dup1\n      dup1\n      0x01\n      add\n      swap2\n      pop\n      pop\n        /* \"main\":1897:2004  for (uint i = index; i < userList.length - 1; i++) {... */\n      jump(tag_114)\n    tag_115:\n      pop\n        /* \"main\":2014:2022  userList */\n      0x02\n        /* \"main\":2014:2028  userList.pop() */\n      dup1\n      sload\n      dup1\n      tag_126\n      jumpi\n      tag_127\n      tag_128\n      jump\t// in\n    tag_127:\n    tag_126:\n      0x01\n      swap1\n      sub\n      dup2\n      dup2\n      swap1\n      0x00\n      mstore\n      keccak256(0x00, 0x20)\n      add\n      exp(0x0100, 0x00)\n      dup2\n      sload\n      swap1\n      0xffffffffffffffffffffffffffffffffffffffff\n      mul\n      not\n      and\n      swap1\n      sstore\n      swap1\n      sstore\n        /* \"main\":1784:2036  function remove(uint index) private {... */\n      pop\n      jump\t// out\n    tag_49:\n      pop\n      dup1\n      sload\n      tag_130\n      swap1\n      tag_71\n      jump\t// in\n    tag_130:\n      0x00\n      dup3\n      sstore\n      dup1\n      0x1f\n      lt\n      tag_132\n      jumpi\n      pop\n      jump(tag_131)\n    tag_132:\n      0x1f\n      add\n      0x20\n      swap1\n      div\n      swap1\n      0x00\n      mstore\n      keccak256(0x00, 0x20)\n      swap1\n      dup2\n      add\n      swap1\n      tag_133\n      swap2\n      swap1\n      tag_134\n      jump\t// in\n    tag_133:\n    tag_131:\n      pop\n      jump\t// out\n    tag_134:\n    tag_135:\n      dup1\n      dup3\n      gt\n      iszero\n      tag_136\n      jumpi\n      0x00\n      dup2\n      0x00\n      swap1\n      sstore\n      pop\n      0x01\n      add\n      jump(tag_135)\n    tag_136:\n      pop\n      swap1\n      jump\t// out\n        /* \"#utility.yul\":7:133   */\n    tag_137:\n        /* \"#utility.yul\":44:51   */\n      0x00\n        /* \"#utility.yul\":84:126   */\n      0xffffffffffffffffffffffffffffffffffffffff\n        /* \"#utility.yul\":77:82   */\n      dup3\n        /* \"#utility.yul\":73:127   */\n      and\n        /* \"#utility.yul\":62:127   */\n      swap1\n      pop\n        /* \"#utility.yul\":7:133   */\n      swap2\n      swap1\n      pop\n      jump\t// out\n        /* \"#utility.yul\":139:235   */\n    tag_138:\n        /* \"#utility.yul\":176:183   */\n      0x00\n        /* \"#utility.yul\":205:229   */\n      tag_197\n        /* \"#utility.yul\":223:228   */\n      dup3\n        /* \"#utility.yul\":205:229   */\n      tag_137\n      jump\t// in\n    tag_197:\n        /* \"#utility.yul\":194:229   */\n      swap1\n      pop\n        /* \"#utility.yul\":139:235   */\n      swap2\n      swap1\n      pop\n      jump\t// out\n        /* \"#utility.yul\":241:359   */\n    tag_139:\n        /* \"#utility.yul\":328:352   */\n      tag_199\n        /* \"#utility.yul\":346:351   */\n      dup2\n        /* \"#utility.yul\":328:352   */\n      tag_138\n      jump\t// in\n    tag_199:\n        /* \"#utility.yul\":323:326   */\n      dup3\n        /* \"#utility.yul\":316:353   */\n      mstore\n        /* \"#utility.yul\":241:359   */\n      pop\n      pop\n      jump\t// out\n        /* \"#utility.yul\":365:587   */\n    tag_14:\n        /* \"#utility.yul\":458:462   */\n      0x00\n        /* \"#utility.yul\":496:498   */\n      0x20\n        /* \"#utility.yul\":485:494   */\n      dup3\n        /* \"#utility.yul\":481:499   */\n      add\n        /* \"#utility.yul\":473:499   */\n      swap1\n      pop\n        /* \"#utility.yul\":509:580   */\n      tag_201\n        /* \"#utility.yul\":577:578   */\n      0x00\n        /* \"#utility.yul\":566:575   */\n      dup4\n        /* \"#utility.yul\":562:579   */\n      add\n        /* \"#utility.yul\":553:559   */\n      dup5\n        /* \"#utility.yul\":509:580   */\n      tag_139\n      jump\t// in\n    tag_201:\n        /* \"#utility.yul\":365:587   */\n      swap3\n      swap2\n      pop\n      pop\n      jump\t// out\n        /* \"#utility.yul\":593:668   */\n    tag_140:\n        /* \"#utility.yul\":626:632   */\n      0x00\n        /* \"#utility.yul\":659:661   */\n      0x40\n        /* \"#utility.yul\":653:662   */\n      mload\n        /* \"#utility.yul\":643:662   */\n      swap1\n      pop\n        /* \"#utility.yul\":593:668   */\n      swap1\n      jump\t// out\n        /* \"#utility.yul\":674:791   */\n    tag_141:\n        /* \"#utility.yul\":783:784   */\n      0x00\n        /* \"#utility.yul\":780:781   */\n      dup1\n        /* \"#utility.yul\":773:785   */\n      revert\n        /* \"#utility.yul\":797:914   */\n    tag_142:\n        /* \"#utility.yul\":906:907   */\n      0x00\n        /* \"#utility.yul\":903:904   */\n      dup1\n        /* \"#utility.yul\":896:908   */\n      revert\n        /* \"#utility.yul\":920:1042   */\n    tag_143:\n        /* \"#utility.yul\":993:1017   */\n      tag_206\n        /* \"#utility.yul\":1011:1016   */\n      dup2\n        /* \"#utility.yul\":993:1017   */\n      tag_138\n      jump\t// in\n    tag_206:\n        /* \"#utility.yul\":986:991   */\n      dup2\n        /* \"#utility.yul\":983:1018   */\n      eq\n        /* \"#utility.yul\":973:1036   */\n      tag_207\n      jumpi\n        /* \"#utility.yul\":1032:1033   */\n      0x00\n        /* \"#utility.yul\":1029:1030   */\n      dup1\n        /* \"#utility.yul\":1022:1034   */\n      revert\n        /* \"#utility.yul\":973:1036   */\n    tag_207:\n        /* \"#utility.yul\":920:1042   */\n      pop\n      jump\t// out\n        /* \"#utility.yul\":1048:1187   */\n    tag_144:\n        /* \"#utility.yul\":1094:1099   */\n      0x00\n        /* \"#utility.yul\":1132:1138   */\n      dup2\n        /* \"#utility.yul\":1119:1139   */\n      calldataload\n        /* \"#utility.yul\":1110:1139   */\n      swap1\n      pop\n        /* \"#utility.yul\":1148:1181   */\n      tag_209\n        /* \"#utility.yul\":1175:1180   */\n      dup2\n        /* \"#utility.yul\":1148:1181   */\n      tag_143\n      jump\t// in\n    tag_209:\n        /* \"#utility.yul\":1048:1187   */\n      swap3\n      swap2\n      pop\n      pop\n      jump\t// out\n        /* \"#utility.yul\":1193:1522   */\n    tag_17:\n        /* \"#utility.yul\":1252:1258   */\n      0x00\n        /* \"#utility.yul\":1301:1303   */\n      0x20\n        /* \"#utility.yul\":1289:1298   */\n      dup3\n        /* \"#utility.yul\":1280:1287   */\n      dup5\n        /* \"#utility.yul\":1276:1299   */\n      sub\n        /* \"#utility.yul\":1272:1304   */\n      slt\n        /* \"#utility.yul\":1269:1388   */\n      iszero\n      tag_211\n      jumpi\n        /* \"#utility.yul\":1307:1386   */\n      tag_212\n      tag_141\n      jump\t// in\n    tag_212:\n        /* \"#utility.yul\":1269:1388   */\n    tag_211:\n        /* \"#utility.yul\":1427:1428   */\n      0x00\n        /* \"#utility.yul\":1452:1505   */\n      tag_213\n        /* \"#utility.yul\":1497:1504   */\n      dup5\n        /* \"#utility.yul\":1488:1494   */\n      dup3\n        /* \"#utility.yul\":1477:1486   */\n      dup6\n        /* \"#utility.yul\":1473:1495   */\n      add\n        /* \"#utility.yul\":1452:1505   */\n      tag_144\n      jump\t// in\n    tag_213:\n        /* \"#utility.yul\":1442:1505   */\n      swap2\n      pop\n        /* \"#utility.yul\":1398:1515   */\n      pop\n        /* \"#utility.yul\":1193:1522   */\n      swap3\n      swap2\n      pop\n      pop\n      jump\t// out\n        /* \"#utility.yul\":1528:1645   */\n    tag_145:\n        /* \"#utility.yul\":1637:1638   */\n      0x00\n        /* \"#utility.yul\":1634:1635   */\n      dup1\n        /* \"#utility.yul\":1627:1639   */\n      revert\n        /* \"#utility.yul\":1651:1768   */\n    tag_146:\n        /* \"#utility.yul\":1760:1761   */\n      0x00\n        /* \"#utility.yul\":1757:1758   */\n      dup1\n        /* \"#utility.yul\":1750:1762   */\n      revert\n        /* \"#utility.yul\":1774:1876   */\n    tag_147:\n        /* \"#utility.yul\":1815:1821   */\n      0x00\n        /* \"#utility.yul\":1866:1868   */\n      0x1f\n        /* \"#utility.yul\":1862:1869   */\n      not\n        /* \"#utility.yul\":1857:1859   */\n      0x1f\n        /* \"#utility.yul\":1850:1855   */\n      dup4\n        /* \"#utility.yul\":1846:1860   */\n      add\n        /* \"#utility.yul\":1842:1870   */\n      and\n        /* \"#utility.yul\":1832:1870   */\n      swap1\n      pop\n        /* \"#utility.yul\":1774:1876   */\n      swap2\n      swap1\n      pop\n      jump\t// out\n        /* \"#utility.yul\":1882:2062   */\n    tag_148:\n        /* \"#utility.yul\":1930:2007   */\n      0x4e487b7100000000000000000000000000000000000000000000000000000000\n        /* \"#utility.yul\":1927:1928   */\n      0x00\n        /* \"#utility.yul\":1920:2008   */\n      mstore\n        /* \"#utility.yul\":2027:2031   */\n      0x41\n        /* \"#utility.yul\":2024:2025   */\n      0x04\n        /* \"#utility.yul\":2017:2032   */\n      mstore\n        /* \"#utility.yul\":2051:2055   */\n      0x24\n        /* \"#utility.yul\":2048:2049   */\n      0x00\n        /* \"#utility.yul\":2041:2056   */\n      revert\n        /* \"#utility.yul\":2068:2349   */\n    tag_149:\n        /* \"#utility.yul\":2151:2178   */\n      tag_219\n        /* \"#utility.yul\":2173:2177   */\n      dup3\n        /* \"#utility.yul\":2151:2178   */\n      tag_147\n      jump\t// in\n    tag_219:\n        /* \"#utility.yul\":2143:2149   */\n      dup2\n        /* \"#utility.yul\":2139:2179   */\n      add\n        /* \"#utility.yul\":2281:2287   */\n      dup2\n        /* \"#utility.yul\":2269:2279   */\n      dup2\n        /* \"#utility.yul\":2266:2288   */\n      lt\n        /* \"#utility.yul\":2245:2263   */\n      0xffffffffffffffff\n        /* \"#utility.yul\":2233:2243   */\n      dup3\n        /* \"#utility.yul\":2230:2264   */\n      gt\n        /* \"#utility.yul\":2227:2289   */\n      or\n        /* \"#utility.yul\":2224:2312   */\n      iszero\n      tag_220\n      jumpi\n        /* \"#utility.yul\":2292:2310   */\n      tag_221\n      tag_148\n      jump\t// in\n    tag_221:\n        /* \"#utility.yul\":2224:2312   */\n    tag_220:\n        /* \"#utility.yul\":2332:2342   */\n      dup1\n        /* \"#utility.yul\":2328:2330   */\n      0x40\n        /* \"#utility.yul\":2321:2343   */\n      mstore\n        /* \"#utility.yul\":2111:2349   */\n      pop\n        /* \"#utility.yul\":2068:2349   */\n      pop\n      pop\n      jump\t// out\n        /* \"#utility.yul\":2355:2484   */\n    tag_150:\n        /* \"#utility.yul\":2389:2395   */\n      0x00\n        /* \"#utility.yul\":2416:2436   */\n      tag_223\n      tag_140\n      jump\t// in\n    tag_223:\n        /* \"#utility.yul\":2406:2436   */\n      swap1\n      pop\n        /* \"#utility.yul\":2445:2478   */\n      tag_224\n        /* \"#utility.yul\":2473:2477   */\n      dup3\n        /* \"#utility.yul\":2465:2471   */\n      dup3\n        /* \"#utility.yul\":2445:2478   */\n      tag_149\n      jump\t// in\n    tag_224:\n        /* \"#utility.yul\":2355:2484   */\n      swap2\n      swap1\n      pop\n      jump\t// out\n        /* \"#utility.yul\":2490:2798   */\n    tag_151:\n        /* \"#utility.yul\":2552:2556   */\n      0x00\n        /* \"#utility.yul\":2642:2660   */\n      0xffffffffffffffff\n        /* \"#utility.yul\":2634:2640   */\n      dup3\n        /* \"#utility.yul\":2631:2661   */\n      gt\n        /* \"#utility.yul\":2628:2684   */\n      iszero\n      tag_226\n      jumpi\n        /* \"#utility.yul\":2664:2682   */\n      tag_227\n      tag_148\n      jump\t// in\n    tag_227:\n        /* \"#utility.yul\":2628:2684   */\n    tag_226:\n        /* \"#utility.yul\":2702:2731   */\n      tag_228\n        /* \"#utility.yul\":2724:2730   */\n      dup3\n        /* \"#utility.yul\":2702:2731   */\n      tag_147\n      jump\t// in\n    tag_228:\n        /* \"#utility.yul\":2694:2731   */\n      swap1\n      pop\n        /* \"#utility.yul\":2786:2790   */\n      0x20\n        /* \"#utility.yul\":2780:2784   */\n      dup2\n        /* \"#utility.yul\":2776:2791   */\n      add\n        /* \"#utility.yul\":2768:2791   */\n      swap1\n      pop\n        /* \"#utility.yul\":2490:2798   */\n      swap2\n      swap1\n      pop\n      jump\t// out\n        /* \"#utility.yul\":2804:2950   */\n    tag_152:\n        /* \"#utility.yul\":2901:2907   */\n      dup3\n        /* \"#utility.yul\":2896:2899   */\n      dup2\n        /* \"#utility.yul\":2891:2894   */\n      dup4\n        /* \"#utility.yul\":2878:2908   */\n      calldatacopy\n        /* \"#utility.yul\":2942:2943   */\n      0x00\n        /* \"#utility.yul\":2933:2939   */\n      dup4\n        /* \"#utility.yul\":2928:2931   */\n      dup4\n        /* \"#utility.yul\":2924:2940   */\n      add\n        /* \"#utility.yul\":2917:2944   */\n      mstore\n        /* \"#utility.yul\":2804:2950   */\n      pop\n      pop\n      pop\n      jump\t// out\n        /* \"#utility.yul\":2956:3381   */\n    tag_153:\n        /* \"#utility.yul\":3034:3039   */\n      0x00\n        /* \"#utility.yul\":3059:3125   */\n      tag_231\n        /* \"#utility.yul\":3075:3124   */\n      tag_232\n        /* \"#utility.yul\":3117:3123   */\n      dup5\n        /* \"#utility.yul\":3075:3124   */\n      tag_151\n      jump\t// in\n    tag_232:\n        /* \"#utility.yul\":3059:3125   */\n      tag_150\n      jump\t// in\n    tag_231:\n        /* \"#utility.yul\":3050:3125   */\n      swap1\n      pop\n        /* \"#utility.yul\":3148:3154   */\n      dup3\n        /* \"#utility.yul\":3141:3146   */\n      dup2\n        /* \"#utility.yul\":3134:3155   */\n      mstore\n        /* \"#utility.yul\":3186:3190   */\n      0x20\n        /* \"#utility.yul\":3179:3184   */\n      dup2\n        /* \"#utility.yul\":3175:3191   */\n      add\n        /* \"#utility.yul\":3224:3227   */\n      dup5\n        /* \"#utility.yul\":3215:3221   */\n      dup5\n        /* \"#utility.yul\":3210:3213   */\n      dup5\n        /* \"#utility.yul\":3206:3222   */\n      add\n        /* \"#utility.yul\":3203:3228   */\n      gt\n        /* \"#utility.yul\":3200:3312   */\n      iszero\n      tag_233\n      jumpi\n        /* \"#utility.yul\":3231:3310   */\n      tag_234\n      tag_146\n      jump\t// in\n    tag_234:\n        /* \"#utility.yul\":3200:3312   */\n    tag_233:\n        /* \"#utility.yul\":3321:3375   */\n      tag_235\n        /* \"#utility.yul\":3368:3374   */\n      dup5\n        /* \"#utility.yul\":3363:3366   */\n      dup3\n        /* \"#utility.yul\":3358:3361   */\n      dup6\n        /* \"#utility.yul\":3321:3375   */\n      tag_152\n      jump\t// in\n    tag_235:\n        /* \"#utility.yul\":3040:3381   */\n      pop\n        /* \"#utility.yul\":2956:3381   */\n      swap4\n      swap3\n      pop\n      pop\n      pop\n      jump\t// out\n        /* \"#utility.yul\":3401:3741   */\n    tag_154:\n        /* \"#utility.yul\":3457:3462   */\n      0x00\n        /* \"#utility.yul\":3506:3509   */\n      dup3\n        /* \"#utility.yul\":3499:3503   */\n      0x1f\n        /* \"#utility.yul\":3491:3497   */\n      dup4\n        /* \"#utility.yul\":3487:3504   */\n      add\n        /* \"#utility.yul\":3483:3510   */\n      slt\n        /* \"#utility.yul\":3473:3595   */\n      tag_237\n      jumpi\n        /* \"#utility.yul\":3514:3593   */\n      tag_238\n      tag_145\n      jump\t// in\n    tag_238:\n        /* \"#utility.yul\":3473:3595   */\n    tag_237:\n        /* \"#utility.yul\":3631:3637   */\n      dup2\n        /* \"#utility.yul\":3618:3638   */\n      calldataload\n        /* \"#utility.yul\":3656:3735   */\n      tag_239\n        /* \"#utility.yul\":3731:3734   */\n      dup5\n        /* \"#utility.yul\":3723:3729   */\n      dup3\n        /* \"#utility.yul\":3716:3720   */\n      0x20\n        /* \"#utility.yul\":3708:3714   */\n      dup7\n        /* \"#utility.yul\":3704:3721   */\n      add\n        /* \"#utility.yul\":3656:3735   */\n      tag_153\n      jump\t// in\n    tag_239:\n        /* \"#utility.yul\":3647:3735   */\n      swap2\n      pop\n        /* \"#utility.yul\":3463:3741   */\n      pop\n        /* \"#utility.yul\":3401:3741   */\n      swap3\n      swap2\n      pop\n      pop\n      jump\t// out\n        /* \"#utility.yul\":3747:5232   */\n    tag_21:\n        /* \"#utility.yul\":3873:3879   */\n      0x00\n        /* \"#utility.yul\":3881:3887   */\n      dup1\n        /* \"#utility.yul\":3889:3895   */\n      0x00\n        /* \"#utility.yul\":3897:3903   */\n      dup1\n        /* \"#utility.yul\":3946:3949   */\n      0x80\n        /* \"#utility.yul\":3934:3943   */\n      dup6\n        /* \"#utility.yul\":3925:3932   */\n      dup8\n        /* \"#utility.yul\":3921:3944   */\n      sub\n        /* \"#utility.yul\":3917:3950   */\n      slt\n        /* \"#utility.yul\":3914:4034   */\n      iszero\n      tag_241\n      jumpi\n        /* \"#utility.yul\":3953:4032   */\n      tag_242\n      tag_141\n      jump\t// in\n    tag_242:\n        /* \"#utility.yul\":3914:4034   */\n    tag_241:\n        /* \"#utility.yul\":4101:4102   */\n      0x00\n        /* \"#utility.yul\":4090:4099   */\n      dup6\n        /* \"#utility.yul\":4086:4103   */\n      add\n        /* \"#utility.yul\":4073:4104   */\n      calldataload\n        /* \"#utility.yul\":4131:4149   */\n      0xffffffffffffffff\n        /* \"#utility.yul\":4123:4129   */\n      dup2\n        /* \"#utility.yul\":4120:4150   */\n      gt\n        /* \"#utility.yul\":4117:4234   */\n      iszero\n      tag_243\n      jumpi\n        /* \"#utility.yul\":4153:4232   */\n      tag_244\n      tag_142\n      jump\t// in\n    tag_244:\n        /* \"#utility.yul\":4117:4234   */\n    tag_243:\n        /* \"#utility.yul\":4258:4321   */\n      tag_245\n        /* \"#utility.yul\":4313:4320   */\n      dup8\n        /* \"#utility.yul\":4304:4310   */\n      dup3\n        /* \"#utility.yul\":4293:4302   */\n      dup9\n        /* \"#utility.yul\":4289:4311   */\n      add\n        /* \"#utility.yul\":4258:4321   */\n      tag_154\n      jump\t// in\n    tag_245:\n        /* \"#utility.yul\":4248:4321   */\n      swap5\n      pop\n        /* \"#utility.yul\":4044:4331   */\n      pop\n        /* \"#utility.yul\":4398:4400   */\n      0x20\n        /* \"#utility.yul\":4387:4396   */\n      dup6\n        /* \"#utility.yul\":4383:4401   */\n      add\n        /* \"#utility.yul\":4370:4402   */\n      calldataload\n        /* \"#utility.yul\":4429:4447   */\n      0xffffffffffffffff\n        /* \"#utility.yul\":4421:4427   */\n      dup2\n        /* \"#utility.yul\":4418:4448   */\n      gt\n        /* \"#utility.yul\":4415:4532   */\n      iszero\n      tag_246\n      jumpi\n        /* \"#utility.yul\":4451:4530   */\n      tag_247\n      tag_142\n      jump\t// in\n    tag_247:\n        /* \"#utility.yul\":4415:4532   */\n    tag_246:\n        /* \"#utility.yul\":4556:4619   */\n      tag_248\n        /* \"#utility.yul\":4611:4618   */\n      dup8\n        /* \"#utility.yul\":4602:4608   */\n      dup3\n        /* \"#utility.yul\":4591:4600   */\n      dup9\n        /* \"#utility.yul\":4587:4609   */\n      add\n        /* \"#utility.yul\":4556:4619   */\n      tag_154\n      jump\t// in\n    tag_248:\n        /* \"#utility.yul\":4546:4619   */\n      swap4\n      pop\n        /* \"#utility.yul\":4341:4629   */\n      pop\n        /* \"#utility.yul\":4696:4698   */\n      0x40\n        /* \"#utility.yul\":4685:4694   */\n      dup6\n        /* \"#utility.yul\":4681:4699   */\n      add\n        /* \"#utility.yul\":4668:4700   */\n      calldataload\n        /* \"#utility.yul\":4727:4745   */\n      0xffffffffffffffff\n        /* \"#utility.yul\":4719:4725   */\n      dup2\n        /* \"#utility.yul\":4716:4746   */\n      gt\n        /* \"#utility.yul\":4713:4830   */\n      iszero\n      tag_249\n      jumpi\n        /* \"#utility.yul\":4749:4828   */\n      tag_250\n      tag_142\n      jump\t// in\n    tag_250:\n        /* \"#utility.yul\":4713:4830   */\n    tag_249:\n        /* \"#utility.yul\":4854:4917   */\n      tag_251\n        /* \"#utility.yul\":4909:4916   */\n      dup8\n        /* \"#utility.yul\":4900:4906   */\n      dup3\n        /* \"#utility.yul\":4889:4898   */\n      dup9\n        /* \"#utility.yul\":4885:4907   */\n      add\n        /* \"#utility.yul\":4854:4917   */\n      tag_154\n      jump\t// in\n    tag_251:\n        /* \"#utility.yul\":4844:4917   */\n      swap3\n      pop\n        /* \"#utility.yul\":4639:4927   */\n      pop\n        /* \"#utility.yul\":4994:4996   */\n      0x60\n        /* \"#utility.yul\":4983:4992   */\n      dup6\n        /* \"#utility.yul\":4979:4997   */\n      add\n        /* \"#utility.yul\":4966:4998   */\n      calldataload\n        /* \"#utility.yul\":5025:5043   */\n      0xffffffffffffffff\n        /* \"#utility.yul\":5017:5023   */\n      dup2\n        /* \"#utility.yul\":5014:5044   */\n      gt\n        /* \"#utility.yul\":5011:5128   */\n      iszero\n      tag_252\n      jumpi\n        /* \"#utility.yul\":5047:5126   */\n      tag_253\n      tag_142\n      jump\t// in\n    tag_253:\n        /* \"#utility.yul\":5011:5128   */\n    tag_252:\n        /* \"#utility.yul\":5152:5215   */\n      tag_254\n        /* \"#utility.yul\":5207:5214   */\n      dup8\n        /* \"#utility.yul\":5198:5204   */\n      dup3\n        /* \"#utility.yul\":5187:5196   */\n      dup9\n        /* \"#utility.yul\":5183:5205   */\n      add\n        /* \"#utility.yul\":5152:5215   */\n      tag_154\n      jump\t// in\n    tag_254:\n        /* \"#utility.yul\":5142:5215   */\n      swap2\n      pop\n        /* \"#utility.yul\":4937:5225   */\n      pop\n        /* \"#utility.yul\":3747:5232   */\n      swap3\n      swap6\n      swap2\n      swap5\n      pop\n      swap3\n      pop\n      jump\t// out\n        /* \"#utility.yul\":5238:5315   */\n    tag_155:\n        /* \"#utility.yul\":5275:5282   */\n      0x00\n        /* \"#utility.yul\":5304:5309   */\n      dup2\n        /* \"#utility.yul\":5293:5309   */\n      swap1\n      pop\n        /* \"#utility.yul\":5238:5315   */\n      swap2\n      swap1\n      pop\n      jump\t// out\n        /* \"#utility.yul\":5321:5439   */\n    tag_156:\n        /* \"#utility.yul\":5408:5432   */\n      tag_257\n        /* \"#utility.yul\":5426:5431   */\n      dup2\n        /* \"#utility.yul\":5408:5432   */\n      tag_155\n      jump\t// in\n    tag_257:\n        /* \"#utility.yul\":5403:5406   */\n      dup3\n        /* \"#utility.yul\":5396:5433   */\n      mstore\n        /* \"#utility.yul\":5321:5439   */\n      pop\n      pop\n      jump\t// out\n        /* \"#utility.yul\":5445:5667   */\n    tag_24:\n        /* \"#utility.yul\":5538:5542   */\n      0x00\n        /* \"#utility.yul\":5576:5578   */\n      0x20\n        /* \"#utility.yul\":5565:5574   */\n      dup3\n        /* \"#utility.yul\":5561:5579   */\n      add\n        /* \"#utility.yul\":5553:5579   */\n      swap1\n      pop\n        /* \"#utility.yul\":5589:5660   */\n      tag_259\n        /* \"#utility.yul\":5657:5658   */\n      0x00\n        /* \"#utility.yul\":5646:5655   */\n      dup4\n        /* \"#utility.yul\":5642:5659   */\n      add\n        /* \"#utility.yul\":5633:5639   */\n      dup5\n        /* \"#utility.yul\":5589:5660   */\n      tag_156\n      jump\t// in\n    tag_259:\n        /* \"#utility.yul\":5445:5667   */\n      swap3\n      swap2\n      pop\n      pop\n      jump\t// out\n        /* \"#utility.yul\":5673:5795   */\n    tag_157:\n        /* \"#utility.yul\":5746:5770   */\n      tag_261\n        /* \"#utility.yul\":5764:5769   */\n      dup2\n        /* \"#utility.yul\":5746:5770   */\n      tag_155\n      jump\t// in\n    tag_261:\n        /* \"#utility.yul\":5739:5744   */\n      dup2\n        /* \"#utility.yul\":5736:5771   */\n      eq\n        /* \"#utility.yul\":5726:5789   */\n      tag_262\n      jumpi\n        /* \"#utility.yul\":5785:5786   */\n      0x00\n        /* \"#utility.yul\":5782:5783   */\n      dup1\n        /* \"#utility.yul\":5775:5787   */\n      revert\n        /* \"#utility.yul\":5726:5789   */\n    tag_262:\n        /* \"#utility.yul\":5673:5795   */\n      pop\n      jump\t// out\n        /* \"#utility.yul\":5801:5940   */\n    tag_158:\n        /* \"#utility.yul\":5847:5852   */\n      0x00\n        /* \"#utility.yul\":5885:5891   */\n      dup2\n        /* \"#utility.yul\":5872:5892   */\n      calldataload\n        /* \"#utility.yul\":5863:5892   */\n      swap1\n      pop\n        /* \"#utility.yul\":5901:5934   */\n      tag_264\n        /* \"#utility.yul\":5928:5933   */\n      dup2\n        /* \"#utility.yul\":5901:5934   */\n      tag_157\n      jump\t// in\n    tag_264:\n        /* \"#utility.yul\":5801:5940   */\n      swap3\n      swap2\n      pop\n      pop\n      jump\t// out\n        /* \"#utility.yul\":5946:6275   */\n    tag_27:\n        /* \"#utility.yul\":6005:6011   */\n      0x00\n        /* \"#utility.yul\":6054:6056   */\n      0x20\n        /* \"#utility.yul\":6042:6051   */\n      dup3\n        /* \"#utility.yul\":6033:6040   */\n      dup5\n        /* \"#utility.yul\":6029:6052   */\n      sub\n        /* \"#utility.yul\":6025:6057   */\n      slt\n        /* \"#utility.yul\":6022:6141   */\n      iszero\n      tag_266\n      jumpi\n        /* \"#utility.yul\":6060:6139   */\n      tag_267\n      tag_141\n      jump\t// in\n    tag_267:\n        /* \"#utility.yul\":6022:6141   */\n    tag_266:\n        /* \"#utility.yul\":6180:6181   */\n      0x00\n        /* \"#utility.yul\":6205:6258   */\n      tag_268\n        /* \"#utility.yul\":6250:6257   */\n      dup5\n        /* \"#utility.yul\":6241:6247   */\n      dup3\n        /* \"#utility.yul\":6230:6239   */\n      dup6\n        /* \"#utility.yul\":6226:6248   */\n      add\n        /* \"#utility.yul\":6205:6258   */\n      tag_158\n      jump\t// in\n    tag_268:\n        /* \"#utility.yul\":6195:6258   */\n      swap2\n      pop\n        /* \"#utility.yul\":6151:6268   */\n      pop\n        /* \"#utility.yul\":5946:6275   */\n      swap3\n      swap2\n      pop\n      pop\n      jump\t// out\n        /* \"#utility.yul\":6281:6380   */\n    tag_159:\n        /* \"#utility.yul\":6333:6339   */\n      0x00\n        /* \"#utility.yul\":6367:6372   */\n      dup2\n        /* \"#utility.yul\":6361:6373   */\n      mload\n        /* \"#utility.yul\":6351:6373   */\n      swap1\n      pop\n        /* \"#utility.yul\":6281:6380   */\n      swap2\n      swap1\n      pop\n      jump\t// out\n        /* \"#utility.yul\":6386:6555   */\n    tag_160:\n        /* \"#utility.yul\":6470:6481   */\n      0x00\n        /* \"#utility.yul\":6504:6510   */\n      dup3\n        /* \"#utility.yul\":6499:6502   */\n      dup3\n        /* \"#utility.yul\":6492:6511   */\n      mstore\n        /* \"#utility.yul\":6544:6548   */\n      0x20\n        /* \"#utility.yul\":6539:6542   */\n      dup3\n        /* \"#utility.yul\":6535:6549   */\n      add\n        /* \"#utility.yul\":6520:6549   */\n      swap1\n      pop\n        /* \"#utility.yul\":6386:6555   */\n      swap3\n      swap2\n      pop\n      pop\n      jump\t// out\n        /* \"#utility.yul\":6561:6807   */\n    tag_161:\n        /* \"#utility.yul\":6642:6643   */\n      0x00\n        /* \"#utility.yul\":6652:6765   */\n    tag_272:\n        /* \"#utility.yul\":6666:6672   */\n      dup4\n        /* \"#utility.yul\":6663:6664   */\n      dup2\n        /* \"#utility.yul\":6660:6673   */\n      lt\n        /* \"#utility.yul\":6652:6765   */\n      iszero\n      tag_274\n      jumpi\n        /* \"#utility.yul\":6751:6752   */\n      dup1\n        /* \"#utility.yul\":6746:6749   */\n      dup3\n        /* \"#utility.yul\":6742:6753   */\n      add\n        /* \"#utility.yul\":6736:6754   */\n      mload\n        /* \"#utility.yul\":6732:6733   */\n      dup2\n        /* \"#utility.yul\":6727:6730   */\n      dup5\n        /* \"#utility.yul\":6723:6734   */\n      add\n        /* \"#utility.yul\":6716:6755   */\n      mstore\n        /* \"#utility.yul\":6688:6690   */\n      0x20\n        /* \"#utility.yul\":6685:6686   */\n      dup2\n        /* \"#utility.yul\":6681:6691   */\n      add\n        /* \"#utility.yul\":6676:6691   */\n      swap1\n      pop\n        /* \"#utility.yul\":6652:6765   */\n      jump(tag_272)\n    tag_274:\n        /* \"#utility.yul\":6799:6800   */\n      0x00\n        /* \"#utility.yul\":6790:6796   */\n      dup5\n        /* \"#utility.yul\":6785:6788   */\n      dup5\n        /* \"#utility.yul\":6781:6797   */\n      add\n        /* \"#utility.yul\":6774:6801   */\n      mstore\n        /* \"#utility.yul\":6623:6807   */\n      pop\n        /* \"#utility.yul\":6561:6807   */\n      pop\n      pop\n      pop\n      jump\t// out\n        /* \"#utility.yul\":6813:7190   */\n    tag_162:\n        /* \"#utility.yul\":6901:6904   */\n      0x00\n        /* \"#utility.yul\":6929:6968   */\n      tag_276\n        /* \"#utility.yul\":6962:6967   */\n      dup3\n        /* \"#utility.yul\":6929:6968   */\n      tag_159\n      jump\t// in\n    tag_276:\n        /* \"#utility.yul\":6984:7055   */\n      tag_277\n        /* \"#utility.yul\":7048:7054   */\n      dup2\n        /* \"#utility.yul\":7043:7046   */\n      dup6\n        /* \"#utility.yul\":6984:7055   */\n      tag_160\n      jump\t// in\n    tag_277:\n        /* \"#utility.yul\":6977:7055   */\n      swap4\n      pop\n        /* \"#utility.yul\":7064:7129   */\n      tag_278\n        /* \"#utility.yul\":7122:7128   */\n      dup2\n        /* \"#utility.yul\":7117:7120   */\n      dup6\n        /* \"#utility.yul\":7110:7114   */\n      0x20\n        /* \"#utility.yul\":7103:7108   */\n      dup7\n        /* \"#utility.yul\":7099:7115   */\n      add\n        /* \"#utility.yul\":7064:7129   */\n      tag_161\n      jump\t// in\n    tag_278:\n        /* \"#utility.yul\":7154:7183   */\n      tag_279\n        /* \"#utility.yul\":7176:7182   */\n      dup2\n        /* \"#utility.yul\":7154:7183   */\n      tag_147\n      jump\t// in\n    tag_279:\n        /* \"#utility.yul\":7149:7152   */\n      dup5\n        /* \"#utility.yul\":7145:7184   */\n      add\n        /* \"#utility.yul\":7138:7184   */\n      swap2\n      pop\n        /* \"#utility.yul\":6905:7190   */\n      pop\n        /* \"#utility.yul\":6813:7190   */\n      swap3\n      swap2\n      pop\n      pop\n      jump\t// out\n        /* \"#utility.yul\":7196:8224   */\n    tag_34:\n        /* \"#utility.yul\":7481:7485   */\n      0x00\n        /* \"#utility.yul\":7519:7522   */\n      0xa0\n        /* \"#utility.yul\":7508:7517   */\n      dup3\n        /* \"#utility.yul\":7504:7523   */\n      add\n        /* \"#utility.yul\":7496:7523   */\n      swap1\n      pop\n        /* \"#utility.yul\":7569:7578   */\n      dup2\n        /* \"#utility.yul\":7563:7567   */\n      dup2\n        /* \"#utility.yul\":7559:7579   */\n      sub\n        /* \"#utility.yul\":7555:7556   */\n      0x00\n        /* \"#utility.yul\":7544:7553   */\n      dup4\n        /* \"#utility.yul\":7540:7557   */\n      add\n        /* \"#utility.yul\":7533:7580   */\n      mstore\n        /* \"#utility.yul\":7597:7675   */\n      tag_281\n        /* \"#utility.yul\":7670:7674   */\n      dup2\n        /* \"#utility.yul\":7661:7667   */\n      dup9\n        /* \"#utility.yul\":7597:7675   */\n      tag_162\n      jump\t// in\n    tag_281:\n        /* \"#utility.yul\":7589:7675   */\n      swap1\n      pop\n        /* \"#utility.yul\":7722:7731   */\n      dup2\n        /* \"#utility.yul\":7716:7720   */\n      dup2\n        /* \"#utility.yul\":7712:7732   */\n      sub\n        /* \"#utility.yul\":7707:7709   */\n      0x20\n        /* \"#utility.yul\":7696:7705   */\n      dup4\n        /* \"#utility.yul\":7692:7710   */\n      add\n        /* \"#utility.yul\":7685:7733   */\n      mstore\n        /* \"#utility.yul\":7750:7828   */\n      tag_282\n        /* \"#utility.yul\":7823:7827   */\n      dup2\n        /* \"#utility.yul\":7814:7820   */\n      dup8\n        /* \"#utility.yul\":7750:7828   */\n      tag_162\n      jump\t// in\n    tag_282:\n        /* \"#utility.yul\":7742:7828   */\n      swap1\n      pop\n        /* \"#utility.yul\":7875:7884   */\n      dup2\n        /* \"#utility.yul\":7869:7873   */\n      dup2\n        /* \"#utility.yul\":7865:7885   */\n      sub\n        /* \"#utility.yul\":7860:7862   */\n      0x40\n        /* \"#utility.yul\":7849:7858   */\n      dup4\n        /* \"#utility.yul\":7845:7863   */\n      add\n        /* \"#utility.yul\":7838:7886   */\n      mstore\n        /* \"#utility.yul\":7903:7981   */\n      tag_283\n        /* \"#utility.yul\":7976:7980   */\n      dup2\n        /* \"#utility.yul\":7967:7973   */\n      dup7\n        /* \"#utility.yul\":7903:7981   */\n      tag_162\n      jump\t// in\n    tag_283:\n        /* \"#utility.yul\":7895:7981   */\n      swap1\n      pop\n        /* \"#utility.yul\":8028:8037   */\n      dup2\n        /* \"#utility.yul\":8022:8026   */\n      dup2\n        /* \"#utility.yul\":8018:8038   */\n      sub\n        /* \"#utility.yul\":8013:8015   */\n      0x60\n        /* \"#utility.yul\":8002:8011   */\n      dup4\n        /* \"#utility.yul\":7998:8016   */\n      add\n        /* \"#utility.yul\":7991:8039   */\n      mstore\n        /* \"#utility.yul\":8056:8134   */\n      tag_284\n        /* \"#utility.yul\":8129:8133   */\n      dup2\n        /* \"#utility.yul\":8120:8126   */\n      dup6\n        /* \"#utility.yul\":8056:8134   */\n      tag_162\n      jump\t// in\n    tag_284:\n        /* \"#utility.yul\":8048:8134   */\n      swap1\n      pop\n        /* \"#utility.yul\":8144:8217   */\n      tag_285\n        /* \"#utility.yul\":8212:8215   */\n      0x80\n        /* \"#utility.yul\":8201:8210   */\n      dup4\n        /* \"#utility.yul\":8197:8216   */\n      add\n        /* \"#utility.yul\":8188:8194   */\n      dup5\n        /* \"#utility.yul\":8144:8217   */\n      tag_139\n      jump\t// in\n    tag_285:\n        /* \"#utility.yul\":7196:8224   */\n      swap7\n      swap6\n      pop\n      pop\n      pop\n      pop\n      pop\n      pop\n      jump\t// out\n        /* \"#utility.yul\":8230:9861   */\n    tag_37:\n        /* \"#utility.yul\":8365:8371   */\n      0x00\n        /* \"#utility.yul\":8373:8379   */\n      dup1\n        /* \"#utility.yul\":8381:8387   */\n      0x00\n        /* \"#utility.yul\":8389:8395   */\n      dup1\n        /* \"#utility.yul\":8397:8403   */\n      0x00\n        /* \"#utility.yul\":8446:8449   */\n      0xa0\n        /* \"#utility.yul\":8434:8443   */\n      dup7\n        /* \"#utility.yul\":8425:8432   */\n      dup9\n        /* \"#utility.yul\":8421:8444   */\n      sub\n        /* \"#utility.yul\":8417:8450   */\n      slt\n        /* \"#utility.yul\":8414:8534   */\n      iszero\n      tag_287\n      jumpi\n        /* \"#utility.yul\":8453:8532   */\n      tag_288\n      tag_141\n      jump\t// in\n    tag_288:\n        /* \"#utility.yul\":8414:8534   */\n    tag_287:\n        /* \"#utility.yul\":8573:8574   */\n      0x00\n        /* \"#utility.yul\":8598:8651   */\n      tag_289\n        /* \"#utility.yul\":8643:8650   */\n      dup9\n        /* \"#utility.yul\":8634:8640   */\n      dup3\n        /* \"#utility.yul\":8623:8632   */\n      dup10\n        /* \"#utility.yul\":8619:8641   */\n      add\n        /* \"#utility.yul\":8598:8651   */\n      tag_144\n      jump\t// in\n    tag_289:\n        /* \"#utility.yul\":8588:8651   */\n      swap6\n      pop\n        /* \"#utility.yul\":8544:8661   */\n      pop\n        /* \"#utility.yul\":8728:8730   */\n      0x20\n        /* \"#utility.yul\":8717:8726   */\n      dup7\n        /* \"#utility.yul\":8713:8731   */\n      add\n        /* \"#utility.yul\":8700:8732   */\n      calldataload\n        /* \"#utility.yul\":8759:8777   */\n      0xffffffffffffffff\n        /* \"#utility.yul\":8751:8757   */\n      dup2\n        /* \"#utility.yul\":8748:8778   */\n      gt\n        /* \"#utility.yul\":8745:8862   */\n      iszero\n      tag_290\n      jumpi\n        /* \"#utility.yul\":8781:8860   */\n      tag_291\n      tag_142\n      jump\t// in\n    tag_291:\n        /* \"#utility.yul\":8745:8862   */\n    tag_290:\n        /* \"#utility.yul\":8886:8949   */\n      tag_292\n        /* \"#utility.yul\":8941:8948   */\n      dup9\n        /* \"#utility.yul\":8932:8938   */\n      dup3\n        /* \"#utility.yul\":8921:8930   */\n      dup10\n        /* \"#utility.yul\":8917:8939   */\n      add\n        /* \"#utility.yul\":8886:8949   */\n      tag_154\n      jump\t// in\n    tag_292:\n        /* \"#utility.yul\":8876:8949   */\n      swap5\n      pop\n        /* \"#utility.yul\":8671:8959   */\n      pop\n        /* \"#utility.yul\":9026:9028   */\n      0x40\n        /* \"#utility.yul\":9015:9024   */\n      dup7\n        /* \"#utility.yul\":9011:9029   */\n      add\n        /* \"#utility.yul\":8998:9030   */\n      calldataload\n        /* \"#utility.yul\":9057:9075   */\n      0xffffffffffffffff\n        /* \"#utility.yul\":9049:9055   */\n      dup2\n        /* \"#utility.yul\":9046:9076   */\n      gt\n        /* \"#utility.yul\":9043:9160   */\n      iszero\n      tag_293\n      jumpi\n        /* \"#utility.yul\":9079:9158   */\n      tag_294\n      tag_142\n      jump\t// in\n    tag_294:\n        /* \"#utility.yul\":9043:9160   */\n    tag_293:\n        /* \"#utility.yul\":9184:9247   */\n      tag_295\n        /* \"#utility.yul\":9239:9246   */\n      dup9\n        /* \"#utility.yul\":9230:9236   */\n      dup3\n        /* \"#utility.yul\":9219:9228   */\n      dup10\n        /* \"#utility.yul\":9215:9237   */\n      add\n        /* \"#utility.yul\":9184:9247   */\n      tag_154\n      jump\t// in\n    tag_295:\n        /* \"#utility.yul\":9174:9247   */\n      swap4\n      pop\n        /* \"#utility.yul\":8969:9257   */\n      pop\n        /* \"#utility.yul\":9324:9326   */\n      0x60\n        /* \"#utility.yul\":9313:9322   */\n      dup7\n        /* \"#utility.yul\":9309:9327   */\n      add\n        /* \"#utility.yul\":9296:9328   */\n      calldataload\n        /* \"#utility.yul\":9355:9373   */\n      0xffffffffffffffff\n        /* \"#utility.yul\":9347:9353   */\n      dup2\n        /* \"#utility.yul\":9344:9374   */\n      gt\n        /* \"#utility.yul\":9341:9458   */\n      iszero\n      tag_296\n      jumpi\n        /* \"#utility.yul\":9377:9456   */\n      tag_297\n      tag_142\n      jump\t// in\n    tag_297:\n        /* \"#utility.yul\":9341:9458   */\n    tag_296:\n        /* \"#utility.yul\":9482:9545   */\n      tag_298\n        /* \"#utility.yul\":9537:9544   */\n      dup9\n        /* \"#utility.yul\":9528:9534   */\n      dup3\n        /* \"#utility.yul\":9517:9526   */\n      dup10\n        /* \"#utility.yul\":9513:9535   */\n      add\n        /* \"#utility.yul\":9482:9545   */\n      tag_154\n      jump\t// in\n    tag_298:\n        /* \"#utility.yul\":9472:9545   */\n      swap3\n      pop\n        /* \"#utility.yul\":9267:9555   */\n      pop\n        /* \"#utility.yul\":9622:9625   */\n      0x80\n        /* \"#utility.yul\":9611:9620   */\n      dup7\n        /* \"#utility.yul\":9607:9626   */\n      add\n        /* \"#utility.yul\":9594:9627   */\n      calldataload\n        /* \"#utility.yul\":9654:9672   */\n      0xffffffffffffffff\n        /* \"#utility.yul\":9646:9652   */\n      dup2\n        /* \"#utility.yul\":9643:9673   */\n      gt\n        /* \"#utility.yul\":9640:9757   */\n      iszero\n      tag_299\n      jumpi\n        /* \"#utility.yul\":9676:9755   */\n      tag_300\n      tag_142\n      jump\t// in\n    tag_300:\n        /* \"#utility.yul\":9640:9757   */\n    tag_299:\n        /* \"#utility.yul\":9781:9844   */\n      tag_301\n        /* \"#utility.yul\":9836:9843   */\n      dup9\n        /* \"#utility.yul\":9827:9833   */\n      dup3\n        /* \"#utility.yul\":9816:9825   */\n      dup10\n        /* \"#utility.yul\":9812:9834   */\n      add\n        /* \"#utility.yul\":9781:9844   */\n      tag_154\n      jump\t// in\n    tag_301:\n        /* \"#utility.yul\":9771:9844   */\n      swap2\n      pop\n        /* \"#utility.yul\":9565:9854   */\n      pop\n        /* \"#utility.yul\":8230:9861   */\n      swap3\n      swap6\n      pop\n      swap3\n      swap6\n      swap1\n      swap4\n      pop\n      jump\t// out\n        /* \"#utility.yul\":9867:9957   */\n    tag_163:\n        /* \"#utility.yul\":9901:9908   */\n      0x00\n        /* \"#utility.yul\":9944:9949   */\n      dup2\n        /* \"#utility.yul\":9937:9950   */\n      iszero\n        /* \"#utility.yul\":9930:9951   */\n      iszero\n        /* \"#utility.yul\":9919:9951   */\n      swap1\n      pop\n        /* \"#utility.yul\":9867:9957   */\n      swap2\n      swap1\n      pop\n      jump\t// out\n        /* \"#utility.yul\":9963:10072   */\n    tag_164:\n        /* \"#utility.yul\":10044:10065   */\n      tag_304\n        /* \"#utility.yul\":10059:10064   */\n      dup2\n        /* \"#utility.yul\":10044:10065   */\n      tag_163\n      jump\t// in\n    tag_304:\n        /* \"#utility.yul\":10039:10042   */\n      dup3\n        /* \"#utility.yul\":10032:10066   */\n      mstore\n        /* \"#utility.yul\":9963:10072   */\n      pop\n      pop\n      jump\t// out\n        /* \"#utility.yul\":10078:10288   */\n    tag_40:\n        /* \"#utility.yul\":10165:10169   */\n      0x00\n        /* \"#utility.yul\":10203:10205   */\n      0x20\n        /* \"#utility.yul\":10192:10201   */\n      dup3\n        /* \"#utility.yul\":10188:10206   */\n      add\n        /* \"#utility.yul\":10180:10206   */\n      swap1\n      pop\n        /* \"#utility.yul\":10216:10281   */\n      tag_306\n        /* \"#utility.yul\":10278:10279   */\n      0x00\n        /* \"#utility.yul\":10267:10276   */\n      dup4\n        /* \"#utility.yul\":10263:10280   */\n      add\n        /* \"#utility.yul\":10254:10260   */\n      dup5\n        /* \"#utility.yul\":10216:10281   */\n      tag_164\n      jump\t// in\n    tag_306:\n        /* \"#utility.yul\":10078:10288   */\n      swap3\n      swap2\n      pop\n      pop\n      jump\t// out\n        /* \"#utility.yul\":10294:10459   */\n    tag_165:\n        /* \"#utility.yul\":10434:10451   */\n      0x496e76616c696420616464726573730000000000000000000000000000000000\n        /* \"#utility.yul\":10430:10431   */\n      0x00\n        /* \"#utility.yul\":10422:10428   */\n      dup3\n        /* \"#utility.yul\":10418:10432   */\n      add\n        /* \"#utility.yul\":10411:10452   */\n      mstore\n        /* \"#utility.yul\":10294:10459   */\n      pop\n      jump\t// out\n        /* \"#utility.yul\":10465:10831   */\n    tag_166:\n        /* \"#utility.yul\":10607:10610   */\n      0x00\n        /* \"#utility.yul\":10628:10695   */\n      tag_309\n        /* \"#utility.yul\":10692:10694   */\n      0x0f\n        /* \"#utility.yul\":10687:10690   */\n      dup4\n        /* \"#utility.yul\":10628:10695   */\n      tag_160\n      jump\t// in\n    tag_309:\n        /* \"#utility.yul\":10621:10695   */\n      swap2\n      pop\n        /* \"#utility.yul\":10704:10797   */\n      tag_310\n        /* \"#utility.yul\":10793:10796   */\n      dup3\n        /* \"#utility.yul\":10704:10797   */\n      tag_165\n      jump\t// in\n    tag_310:\n        /* \"#utility.yul\":10822:10824   */\n      0x20\n        /* \"#utility.yul\":10817:10820   */\n      dup3\n        /* \"#utility.yul\":10813:10825   */\n      add\n        /* \"#utility.yul\":10806:10825   */\n      swap1\n      pop\n        /* \"#utility.yul\":10465:10831   */\n      swap2\n      swap1\n      pop\n      jump\t// out\n        /* \"#utility.yul\":10837:11256   */\n    tag_47:\n        /* \"#utility.yul\":11003:11007   */\n      0x00\n        /* \"#utility.yul\":11041:11043   */\n      0x20\n        /* \"#utility.yul\":11030:11039   */\n      dup3\n        /* \"#utility.yul\":11026:11044   */\n      add\n        /* \"#utility.yul\":11018:11044   */\n      swap1\n      pop\n        /* \"#utility.yul\":11090:11099   */\n      dup2\n        /* \"#utility.yul\":11084:11088   */\n      dup2\n        /* \"#utility.yul\":11080:11100   */\n      sub\n        /* \"#utility.yul\":11076:11077   */\n      0x00\n        /* \"#utility.yul\":11065:11074   */\n      dup4\n        /* \"#utility.yul\":11061:11078   */\n      add\n        /* \"#utility.yul\":11054:11101   */\n      mstore\n        /* \"#utility.yul\":11118:11249   */\n      tag_312\n        /* \"#utility.yul\":11244:11248   */\n      dup2\n        /* \"#utility.yul\":11118:11249   */\n      tag_166\n      jump\t// in\n    tag_312:\n        /* \"#utility.yul\":11110:11249   */\n      swap1\n      pop\n        /* \"#utility.yul\":10837:11256   */\n      swap2\n      swap1\n      pop\n      jump\t// out\n        /* \"#utility.yul\":11262:11341   */\n    tag_167:\n        /* \"#utility.yul\":11301:11308   */\n      0x00\n        /* \"#utility.yul\":11330:11335   */\n      dup2\n        /* \"#utility.yul\":11319:11335   */\n      swap1\n      pop\n        /* \"#utility.yul\":11262:11341   */\n      swap2\n      swap1\n      pop\n      jump\t// out\n        /* \"#utility.yul\":11347:11504   */\n    tag_168:\n        /* \"#utility.yul\":11452:11497   */\n      tag_315\n        /* \"#utility.yul\":11472:11496   */\n      tag_316\n        /* \"#utility.yul\":11490:11495   */\n      dup3\n        /* \"#utility.yul\":11472:11496   */\n      tag_155\n      jump\t// in\n    tag_316:\n        /* \"#utility.yul\":11452:11497   */\n      tag_167\n      jump\t// in\n    tag_315:\n        /* \"#utility.yul\":11447:11450   */\n      dup3\n        /* \"#utility.yul\":11440:11498   */\n      mstore\n        /* \"#utility.yul\":11347:11504   */\n      pop\n      pop\n      jump\t// out\n        /* \"#utility.yul\":11510:11604   */\n    tag_169:\n        /* \"#utility.yul\":11543:11551   */\n      0x00\n        /* \"#utility.yul\":11591:11596   */\n      dup2\n        /* \"#utility.yul\":11587:11589   */\n      0x60\n        /* \"#utility.yul\":11583:11597   */\n      shl\n        /* \"#utility.yul\":11562:11597   */\n      swap1\n      pop\n        /* \"#utility.yul\":11510:11604   */\n      swap2\n      swap1\n      pop\n      jump\t// out\n        /* \"#utility.yul\":11610:11704   */\n    tag_170:\n        /* \"#utility.yul\":11649:11656   */\n      0x00\n        /* \"#utility.yul\":11678:11698   */\n      tag_319\n        /* \"#utility.yul\":11692:11697   */\n      dup3\n        /* \"#utility.yul\":11678:11698   */\n      tag_169\n      jump\t// in\n    tag_319:\n        /* \"#utility.yul\":11667:11698   */\n      swap1\n      pop\n        /* \"#utility.yul\":11610:11704   */\n      swap2\n      swap1\n      pop\n      jump\t// out\n        /* \"#utility.yul\":11710:11810   */\n    tag_171:\n        /* \"#utility.yul\":11749:11756   */\n      0x00\n        /* \"#utility.yul\":11778:11804   */\n      tag_321\n        /* \"#utility.yul\":11798:11803   */\n      dup3\n        /* \"#utility.yul\":11778:11804   */\n      tag_170\n      jump\t// in\n    tag_321:\n        /* \"#utility.yul\":11767:11804   */\n      swap1\n      pop\n        /* \"#utility.yul\":11710:11810   */\n      swap2\n      swap1\n      pop\n      jump\t// out\n        /* \"#utility.yul\":11816:11973   */\n    tag_172:\n        /* \"#utility.yul\":11921:11966   */\n      tag_323\n        /* \"#utility.yul\":11941:11965   */\n      tag_324\n        /* \"#utility.yul\":11959:11964   */\n      dup3\n        /* \"#utility.yul\":11941:11965   */\n      tag_138\n      jump\t// in\n    tag_324:\n        /* \"#utility.yul\":11921:11966   */\n      tag_171\n      jump\t// in\n    tag_323:\n        /* \"#utility.yul\":11916:11919   */\n      dup3\n        /* \"#utility.yul\":11909:11967   */\n      mstore\n        /* \"#utility.yul\":11816:11973   */\n      pop\n      pop\n      jump\t// out\n        /* \"#utility.yul\":11979:12376   */\n    tag_59:\n        /* \"#utility.yul\":12119:12122   */\n      0x00\n        /* \"#utility.yul\":12134:12209   */\n      tag_326\n        /* \"#utility.yul\":12205:12208   */\n      dup3\n        /* \"#utility.yul\":12196:12202   */\n      dup6\n        /* \"#utility.yul\":12134:12209   */\n      tag_168\n      jump\t// in\n    tag_326:\n        /* \"#utility.yul\":12234:12236   */\n      0x20\n        /* \"#utility.yul\":12229:12232   */\n      dup3\n        /* \"#utility.yul\":12225:12237   */\n      add\n        /* \"#utility.yul\":12218:12237   */\n      swap2\n      pop\n        /* \"#utility.yul\":12247:12322   */\n      tag_327\n        /* \"#utility.yul\":12318:12321   */\n      dup3\n        /* \"#utility.yul\":12309:12315   */\n      dup5\n        /* \"#utility.yul\":12247:12322   */\n      tag_172\n      jump\t// in\n    tag_327:\n        /* \"#utility.yul\":12347:12349   */\n      0x14\n        /* \"#utility.yul\":12342:12345   */\n      dup3\n        /* \"#utility.yul\":12338:12350   */\n      add\n        /* \"#utility.yul\":12331:12350   */\n      swap2\n      pop\n        /* \"#utility.yul\":12367:12370   */\n      dup2\n        /* \"#utility.yul\":12360:12370   */\n      swap1\n      pop\n        /* \"#utility.yul\":11979:12376   */\n      swap4\n      swap3\n      pop\n      pop\n      pop\n      jump\t// out\n        /* \"#utility.yul\":12382:12562   */\n    tag_173:\n        /* \"#utility.yul\":12430:12507   */\n      0x4e487b7100000000000000000000000000000000000000000000000000000000\n        /* \"#utility.yul\":12427:12428   */\n      0x00\n        /* \"#utility.yul\":12420:12508   */\n      mstore\n        /* \"#utility.yul\":12527:12531   */\n      0x22\n        /* \"#utility.yul\":12524:12525   */\n      0x04\n        /* \"#utility.yul\":12517:12532   */\n      mstore\n        /* \"#utility.yul\":12551:12555   */\n      0x24\n        /* \"#utility.yul\":12548:12549   */\n      0x00\n        /* \"#utility.yul\":12541:12556   */\n      revert\n        /* \"#utility.yul\":12568:12888   */\n    tag_71:\n        /* \"#utility.yul\":12612:12618   */\n      0x00\n        /* \"#utility.yul\":12649:12650   */\n      0x02\n        /* \"#utility.yul\":12643:12647   */\n      dup3\n        /* \"#utility.yul\":12639:12651   */\n      div\n        /* \"#utility.yul\":12629:12651   */\n      swap1\n      pop\n        /* \"#utility.yul\":12696:12697   */\n      0x01\n        /* \"#utility.yul\":12690:12694   */\n      dup3\n        /* \"#utility.yul\":12686:12698   */\n      and\n        /* \"#utility.yul\":12717:12735   */\n      dup1\n        /* \"#utility.yul\":12707:12788   */\n      tag_330\n      jumpi\n        /* \"#utility.yul\":12773:12777   */\n      0x7f\n        /* \"#utility.yul\":12765:12771   */\n      dup3\n        /* \"#utility.yul\":12761:12778   */\n      and\n        /* \"#utility.yul\":12751:12778   */\n      swap2\n      pop\n        /* \"#utility.yul\":12707:12788   */\n    tag_330:\n        /* \"#utility.yul\":12835:12837   */\n      0x20\n        /* \"#utility.yul\":12827:12833   */\n      dup3\n        /* \"#utility.yul\":12824:12838   */\n      lt\n        /* \"#utility.yul\":12804:12822   */\n      dup2\n        /* \"#utility.yul\":12801:12839   */\n      sub\n        /* \"#utility.yul\":12798:12882   */\n      tag_331\n      jumpi\n        /* \"#utility.yul\":12854:12872   */\n      tag_332\n      tag_173\n      jump\t// in\n    tag_332:\n        /* \"#utility.yul\":12798:12882   */\n    tag_331:\n        /* \"#utility.yul\":12619:12888   */\n      pop\n        /* \"#utility.yul\":12568:12888   */\n      swap2\n      swap1\n      pop\n      jump\t// out\n        /* \"#utility.yul\":12894:13035   */\n    tag_174:\n        /* \"#utility.yul\":12943:12947   */\n      0x00\n        /* \"#utility.yul\":12966:12969   */\n      dup2\n        /* \"#utility.yul\":12958:12969   */\n      swap1\n      pop\n        /* \"#utility.yul\":12989:12992   */\n      dup2\n        /* \"#utility.yul\":12986:12987   */\n      0x00\n        /* \"#utility.yul\":12979:12993   */\n      mstore\n        /* \"#utility.yul\":13023:13027   */\n      0x20\n        /* \"#utility.yul\":13020:13021   */\n      0x00\n        /* \"#utility.yul\":13010:13028   */\n      keccak256\n        /* \"#utility.yul\":13002:13028   */\n      swap1\n      pop\n        /* \"#utility.yul\":12894:13035   */\n      swap2\n      swap1\n      pop\n      jump\t// out\n        /* \"#utility.yul\":13041:13134   */\n    tag_175:\n        /* \"#utility.yul\":13078:13084   */\n      0x00\n        /* \"#utility.yul\":13125:13127   */\n      0x20\n        /* \"#utility.yul\":13120:13122   */\n      0x1f\n        /* \"#utility.yul\":13113:13118   */\n      dup4\n        /* \"#utility.yul\":13109:13123   */\n      add\n        /* \"#utility.yul\":13105:13128   */\n      div\n        /* \"#utility.yul\":13095:13128   */\n      swap1\n      pop\n        /* \"#utility.yul\":13041:13134   */\n      swap2\n      swap1\n      pop\n      jump\t// out\n        /* \"#utility.yul\":13140:13247   */\n    tag_176:\n        /* \"#utility.yul\":13184:13192   */\n      0x00\n        /* \"#utility.yul\":13234:13239   */\n      dup3\n        /* \"#utility.yul\":13228:13232   */\n      dup3\n        /* \"#utility.yul\":13224:13240   */\n      shl\n        /* \"#utility.yul\":13203:13240   */\n      swap1\n      pop\n        /* \"#utility.yul\":13140:13247   */\n      swap3\n      swap2\n      pop\n      pop\n      jump\t// out\n        /* \"#utility.yul\":13253:13646   */\n    tag_177:\n        /* \"#utility.yul\":13322:13328   */\n      0x00\n        /* \"#utility.yul\":13372:13373   */\n      0x08\n        /* \"#utility.yul\":13360:13370   */\n      dup4\n        /* \"#utility.yul\":13356:13374   */\n      mul\n        /* \"#utility.yul\":13395:13492   */\n      tag_337\n        /* \"#utility.yul\":13425:13491   */\n      0xffffffffffffffffffffffffffffffffffffffffffffffffffffffffffffffff\n        /* \"#utility.yul\":13414:13423   */\n      dup3\n        /* \"#utility.yul\":13395:13492   */\n      tag_176\n      jump\t// in\n    tag_337:\n        /* \"#utility.yul\":13513:13552   */\n      tag_338\n        /* \"#utility.yul\":13543:13551   */\n      dup7\n        /* \"#utility.yul\":13532:13541   */\n      dup4\n        /* \"#utility.yul\":13513:13552   */\n      tag_176\n      jump\t// in\n    tag_338:\n        /* \"#utility.yul\":13501:13552   */\n      swap6\n      pop\n        /* \"#utility.yul\":13585:13589   */\n      dup1\n        /* \"#utility.yul\":13581:13590   */\n      not\n        /* \"#utility.yul\":13574:13579   */\n      dup5\n        /* \"#utility.yul\":13570:13591   */\n      and\n        /* \"#utility.yul\":13561:13591   */\n      swap4\n      pop\n        /* \"#utility.yul\":13634:13638   */\n      dup1\n        /* \"#utility.yul\":13624:13632   */\n      dup7\n        /* \"#utility.yul\":13620:13639   */\n      and\n        /* \"#utility.yul\":13613:13618   */\n      dup5\n        /* \"#utility.yul\":13610:13640   */\n      or\n        /* \"#utility.yul\":13600:13640   */\n      swap3\n      pop\n        /* \"#utility.yul\":13329:13646   */\n      pop\n      pop\n        /* \"#utility.yul\":13253:13646   */\n      swap4\n      swap3\n      pop\n      pop\n      pop\n      jump\t// out\n        /* \"#utility.yul\":13652:13712   */\n    tag_178:\n        /* \"#utility.yul\":13680:13683   */\n      0x00\n        /* \"#utility.yul\":13701:13706   */\n      dup2\n        /* \"#utility.yul\":13694:13706   */\n      swap1\n      pop\n        /* \"#utility.yul\":13652:13712   */\n      swap2\n      swap1\n      pop\n      jump\t// out\n        /* \"#utility.yul\":13718:13860   */\n    tag_179:\n        /* \"#utility.yul\":13768:13777   */\n      0x00\n        /* \"#utility.yul\":13801:13854   */\n      tag_341\n        /* \"#utility.yul\":13819:13853   */\n      tag_342\n        /* \"#utility.yul\":13828:13852   */\n      tag_343\n        /* \"#utility.yul\":13846:13851   */\n      dup5\n        /* \"#utility.yul\":13828:13852   */\n      tag_155\n      jump\t// in\n    tag_343:\n        /* \"#utility.yul\":13819:13853   */\n      tag_178\n      jump\t// in\n    tag_342:\n        /* \"#utility.yul\":13801:13854   */\n      tag_155\n      jump\t// in\n    tag_341:\n        /* \"#utility.yul\":13788:13854   */\n      swap1\n      pop\n        /* \"#utility.yul\":13718:13860   */\n      swap2\n      swap1\n      pop\n      jump\t// out\n        /* \"#utility.yul\":13866:13941   */\n    tag_180:\n        /* \"#utility.yul\":13909:13912   */\n      0x00\n        /* \"#utility.yul\":13930:13935   */\n      dup2\n        /* \"#utility.yul\":13923:13935   */\n      swap1\n      pop\n        /* \"#utility.yul\":13866:13941   */\n      swap2\n      swap1\n      pop\n      jump\t// out\n        /* \"#utility.yul\":13947:14216   */\n    tag_181:\n        /* \"#utility.yul\":14057:14096   */\n      tag_346\n        /* \"#utility.yul\":14088:14095   */\n      dup4\n        /* \"#utility.yul\":14057:14096   */\n      tag_179\n      jump\t// in\n    tag_346:\n        /* \"#utility.yul\":14118:14209   */\n      tag_347\n        /* \"#utility.yul\":14167:14208   */\n      tag_348\n        /* \"#utility.yul\":14191:14207   */\n      dup3\n        /* \"#utility.yul\":14167:14208   */\n      tag_180\n      jump\t// in\n    tag_348:\n        /* \"#utility.yul\":14159:14165   */\n      dup5\n        /* \"#utility.yul\":14152:14156   */\n      dup5\n        /* \"#utility.yul\":14146:14157   */\n      sload\n        /* \"#utility.yul\":14118:14209   */\n      tag_177\n      jump\t// in\n    tag_347:\n        /* \"#utility.yul\":14112:14116   */\n      dup3\n        /* \"#utility.yul\":14105:14210   */\n      sstore\n        /* \"#utility.yul\":14023:14216   */\n      pop\n        /* \"#utility.yul\":13947:14216   */\n      pop\n      pop\n      pop\n      jump\t// out\n        /* \"#utility.yul\":14222:14295   */\n    tag_182:\n        /* \"#utility.yul\":14267:14270   */\n      0x00\n        /* \"#utility.yul\":14222:14295   */\n      swap1\n      jump\t// out\n        /* \"#utility.yul\":14301:14490   */\n    tag_183:\n        /* \"#utility.yul\":14378:14410   */\n      tag_351\n      tag_182\n      jump\t// in\n    tag_351:\n        /* \"#utility.yul\":14419:14484   */\n      tag_352\n        /* \"#utility.yul\":14477:14483   */\n      dup2\n        /* \"#utility.yul\":14469:14475   */\n      dup5\n        /* \"#utility.yul\":14463:14467   */\n      dup5\n        /* \"#utility.yul\":14419:14484   */\n      tag_181\n      jump\t// in\n    tag_352:\n        /* \"#utility.yul\":14354:14490   */\n      pop\n        /* \"#utility.yul\":14301:14490   */\n      pop\n      pop\n      jump\t// out\n        /* \"#utility.yul\":14496:14682   */\n    tag_184:\n        /* \"#utility.yul\":14556:14676   */\n    tag_354:\n        /* \"#utility.yul\":14573:14576   */\n      dup2\n        /* \"#utility.yul\":14566:14571   */\n      dup2\n        /* \"#utility.yul\":14563:14577   */\n      lt\n        /* \"#utility.yul\":14556:14676   */\n      iszero\n      tag_356\n      jumpi\n        /* \"#utility.yul\":14627:14666   */\n      tag_357\n        /* \"#utility.yul\":14664:14665   */\n      0x00\n        /* \"#utility.yul\":14657:14662   */\n      dup3\n        /* \"#utility.yul\":14627:14666   */\n      tag_183\n      jump\t// in\n    tag_357:\n        /* \"#utility.yul\":14600:14601   */\n      0x01\n        /* \"#utility.yul\":14593:14598   */\n      dup2\n        /* \"#utility.yul\":14589:14602   */\n      add\n        /* \"#utility.yul\":14580:14602   */\n      swap1\n      pop\n        /* \"#utility.yul\":14556:14676   */\n      jump(tag_354)\n    tag_356:\n        /* \"#utility.yul\":14496:14682   */\n      pop\n      pop\n      jump\t// out\n        /* \"#utility.yul\":14688:15231   */\n    tag_185:\n        /* \"#utility.yul\":14789:14791   */\n      0x1f\n        /* \"#utility.yul\":14784:14787   */\n      dup3\n        /* \"#utility.yul\":14781:14792   */\n      gt\n        /* \"#utility.yul\":14778:15224   */\n      iszero\n      tag_359\n      jumpi\n        /* \"#utility.yul\":14823:14861   */\n      tag_360\n        /* \"#utility.yul\":14855:14860   */\n      dup2\n        /* \"#utility.yul\":14823:14861   */\n      tag_174\n      jump\t// in\n    tag_360:\n        /* \"#utility.yul\":14907:14936   */\n      tag_361\n        /* \"#utility.yul\":14925:14935   */\n      dup5\n        /* \"#utility.yul\":14907:14936   */\n      tag_175\n      jump\t// in\n    tag_361:\n        /* \"#utility.yul\":14897:14905   */\n      dup2\n        /* \"#utility.yul\":14893:14937   */\n      add\n        /* \"#utility.yul\":15090:15092   */\n      0x20\n        /* \"#utility.yul\":15078:15088   */\n      dup6\n        /* \"#utility.yul\":15075:15093   */\n      lt\n        /* \"#utility.yul\":15072:15121   */\n      iszero\n      tag_362\n      jumpi\n        /* \"#utility.yul\":15111:15119   */\n      dup2\n        /* \"#utility.yul\":15096:15119   */\n      swap1\n      pop\n        /* \"#utility.yul\":15072:15121   */\n    tag_362:\n        /* \"#utility.yul\":15134:15214   */\n      tag_363\n        /* \"#utility.yul\":15190:15212   */\n      tag_364\n        /* \"#utility.yul\":15208:15211   */\n      dup6\n        /* \"#utility.yul\":15190:15212   */\n      tag_175\n      jump\t// in\n    tag_364:\n        /* \"#utility.yul\":15180:15188   */\n      dup4\n        /* \"#utility.yul\":15176:15213   */\n      add\n        /* \"#utility.yul\":15163:15174   */\n      dup3\n        /* \"#utility.yul\":15134:15214   */\n      tag_184\n      jump\t// in\n    tag_363:\n        /* \"#utility.yul\":14793:15224   */\n      pop\n      pop\n        /* \"#utility.yul\":14778:15224   */\n    tag_359:\n        /* \"#utility.yul\":14688:15231   */\n      pop\n      pop\n      pop\n      jump\t// out\n        /* \"#utility.yul\":15237:15354   */\n    tag_186:\n        /* \"#utility.yul\":15291:15299   */\n      0x00\n        /* \"#utility.yul\":15341:15346   */\n      dup3\n        /* \"#utility.yul\":15335:15339   */\n      dup3\n        /* \"#utility.yul\":15331:15347   */\n      shr\n        /* \"#utility.yul\":15310:15347   */\n      swap1\n      pop\n        /* \"#utility.yul\":15237:15354   */\n      swap3\n      swap2\n      pop\n      pop\n      jump\t// out\n        /* \"#utility.yul\":15360:15529   */\n    tag_187:\n        /* \"#utility.yul\":15404:15410   */\n      0x00\n        /* \"#utility.yul\":15437:15488   */\n      tag_367\n        /* \"#utility.yul\":15485:15486   */\n      0x00\n        /* \"#utility.yul\":15481:15487   */\n      not\n        /* \"#utility.yul\":15473:15478   */\n      dup5\n        /* \"#utility.yul\":15470:15471   */\n      0x08\n        /* \"#utility.yul\":15466:15479   */\n      mul\n        /* \"#utility.yul\":15437:15488   */\n      tag_186\n      jump\t// in\n    tag_367:\n        /* \"#utility.yul\":15433:15489   */\n      not\n        /* \"#utility.yul\":15518:15522   */\n      dup1\n        /* \"#utility.yul\":15512:15516   */\n      dup4\n        /* \"#utility.yul\":15508:15523   */\n      and\n        /* \"#utility.yul\":15498:15523   */\n      swap2\n      pop\n        /* \"#utility.yul\":15411:15529   */\n      pop\n        /* \"#utility.yul\":15360:15529   */\n      swap3\n      swap2\n      pop\n      pop\n      jump\t// out\n        /* \"#utility.yul\":15534:15829   */\n    tag_188:\n        /* \"#utility.yul\":15610:15614   */\n      0x00\n        /* \"#utility.yul\":15756:15785   */\n      tag_369\n        /* \"#utility.yul\":15781:15784   */\n      dup4\n        /* \"#utility.yul\":15775:15779   */\n      dup4\n        /* \"#utility.yul\":15756:15785   */\n      tag_187\n      jump\t// in\n    tag_369:\n        /* \"#utility.yul\":15748:15785   */\n      swap2\n      pop\n        /* \"#utility.yul\":15818:15821   */\n      dup3\n        /* \"#utility.yul\":15815:15816   */\n      0x02\n        /* \"#utility.yul\":15811:15822   */\n      mul\n        /* \"#utility.yul\":15805:15809   */\n      dup3\n        /* \"#utility.yul\":15802:15823   */\n      or\n        /* \"#utility.yul\":15794:15823   */\n      swap1\n      pop\n        /* \"#utility.yul\":15534:15829   */\n      swap3\n      swap2\n      pop\n      pop\n      jump\t// out\n        /* \"#utility.yul\":15834:17229   */\n    tag_61:\n        /* \"#utility.yul\":15951:15988   */\n      tag_371\n        /* \"#utility.yul\":15984:15987   */\n      dup3\n        /* \"#utility.yul\":15951:15988   */\n      tag_159\n      jump\t// in\n    tag_371:\n        /* \"#utility.yul\":16053:16071   */\n      0xffffffffffffffff\n        /* \"#utility.yul\":16045:16051   */\n      dup2\n        /* \"#utility.yul\":16042:16072   */\n      gt\n        /* \"#utility.yul\":16039:16095   */\n      iszero\n      tag_372\n      jumpi\n        /* \"#utility.yul\":16075:16093   */\n      tag_373\n      tag_148\n      jump\t// in\n    tag_373:\n        /* \"#utility.yul\":16039:16095   */\n    tag_372:\n        /* \"#utility.yul\":16119:16157   */\n      tag_374\n        /* \"#utility.yul\":16151:16155   */\n      dup3\n        /* \"#utility.yul\":16145:16156   */\n      sload\n        /* \"#utility.yul\":16119:16157   */\n      tag_71\n      jump\t// in\n    tag_374:\n        /* \"#utility.yul\":16204:16271   */\n      tag_375\n        /* \"#utility.yul\":16264:16270   */\n      dup3\n        /* \"#utility.yul\":16256:16262   */\n      dup3\n        /* \"#utility.yul\":16250:16254   */\n      dup6\n        /* \"#utility.yul\":16204:16271   */\n      tag_185\n      jump\t// in\n    tag_375:\n        /* \"#utility.yul\":16298:16299   */\n      0x00\n        /* \"#utility.yul\":16322:16326   */\n      0x20\n        /* \"#utility.yul\":16309:16326   */\n      swap1\n      pop\n        /* \"#utility.yul\":16354:16356   */\n      0x1f\n        /* \"#utility.yul\":16346:16352   */\n      dup4\n        /* \"#utility.yul\":16343:16357   */\n      gt\n        /* \"#utility.yul\":16371:16372   */\n      0x01\n        /* \"#utility.yul\":16366:16984   */\n      dup2\n      eq\n      tag_377\n      jumpi\n        /* \"#utility.yul\":17028:17029   */\n      0x00\n        /* \"#utility.yul\":17045:17051   */\n      dup5\n        /* \"#utility.yul\":17042:17119   */\n      iszero\n      tag_378\n      jumpi\n        /* \"#utility.yul\":17094:17103   */\n      dup3\n        /* \"#utility.yul\":17089:17092   */\n      dup8\n        /* \"#utility.yul\":17085:17104   */\n      add\n        /* \"#utility.yul\":17079:17105   */\n      mload\n        /* \"#utility.yul\":17070:17105   */\n      swap1\n      pop\n        /* \"#utility.yul\":17042:17119   */\n    tag_378:\n        /* \"#utility.yul\":17145:17212   */\n      tag_379\n        /* \"#utility.yul\":17205:17211   */\n      dup6\n        /* \"#utility.yul\":17198:17203   */\n      dup3\n        /* \"#utility.yul\":17145:17212   */\n      tag_188\n      jump\t// in\n    tag_379:\n        /* \"#utility.yul\":17139:17143   */\n      dup7\n        /* \"#utility.yul\":17132:17213   */\n      sstore\n        /* \"#utility.yul\":17001:17223   */\n      pop\n        /* \"#utility.yul\":16336:17223   */\n      jump(tag_376)\n        /* \"#utility.yul\":16366:16984   */\n    tag_377:\n        /* \"#utility.yul\":16418:16422   */\n      0x1f\n        /* \"#utility.yul\":16414:16423   */\n      not\n        /* \"#utility.yul\":16406:16412   */\n      dup5\n        /* \"#utility.yul\":16402:16424   */\n      and\n        /* \"#utility.yul\":16452:16489   */\n      tag_380\n        /* \"#utility.yul\":16484:16488   */\n      dup7\n        /* \"#utility.yul\":16452:16489   */\n      tag_174\n      jump\t// in\n    tag_380:\n        /* \"#utility.yul\":16511:16512   */\n      0x00\n        /* \"#utility.yul\":16525:16733   */\n    tag_381:\n        /* \"#utility.yul\":16539:16546   */\n      dup3\n        /* \"#utility.yul\":16536:16537   */\n      dup2\n        /* \"#utility.yul\":16533:16547   */\n      lt\n        /* \"#utility.yul\":16525:16733   */\n      iszero\n      tag_383\n      jumpi\n        /* \"#utility.yul\":16618:16627   */\n      dup5\n        /* \"#utility.yul\":16613:16616   */\n      dup10\n        /* \"#utility.yul\":16609:16628   */\n      add\n        /* \"#utility.yul\":16603:16629   */\n      mload\n        /* \"#utility.yul\":16595:16601   */\n      dup3\n        /* \"#utility.yul\":16588:16630   */\n      sstore\n        /* \"#utility.yul\":16669:16670   */\n      0x01\n        /* \"#utility.yul\":16661:16667   */\n      dup3\n        /* \"#utility.yul\":16657:16671   */\n      add\n        /* \"#utility.yul\":16647:16671   */\n      swap2\n      pop\n        /* \"#utility.yul\":16716:16718   */\n      0x20\n        /* \"#utility.yul\":16705:16714   */\n      dup6\n        /* \"#utility.yul\":16701:16719   */\n      add\n        /* \"#utility.yul\":16688:16719   */\n      swap5\n      pop\n        /* \"#utility.yul\":16562:16566   */\n      0x20\n        /* \"#utility.yul\":16559:16560   */\n      dup2\n        /* \"#utility.yul\":16555:16567   */\n      add\n        /* \"#utility.yul\":16550:16567   */\n      swap1\n      pop\n        /* \"#utility.yul\":16525:16733   */\n      jump(tag_381)\n    tag_383:\n        /* \"#utility.yul\":16761:16767   */\n      dup7\n        /* \"#utility.yul\":16752:16759   */\n      dup4\n        /* \"#utility.yul\":16749:16768   */\n      lt\n        /* \"#utility.yul\":16746:16925   */\n      iszero\n      tag_384\n      jumpi\n        /* \"#utility.yul\":16819:16828   */\n      dup5\n        /* \"#utility.yul\":16814:16817   */\n      dup10\n        /* \"#utility.yul\":16810:16829   */\n      add\n        /* \"#utility.yul\":16804:16830   */\n      mload\n        /* \"#utility.yul\":16862:16910   */\n      tag_385\n        /* \"#utility.yul\":16904:16908   */\n      0x1f\n        /* \"#utility.yul\":16896:16902   */\n      dup10\n        /* \"#utility.yul\":16892:16909   */\n      and\n        /* \"#utility.yul\":16881:16890   */\n      dup3\n        /* \"#utility.yul\":16862:16910   */\n      tag_187\n      jump\t// in\n    tag_385:\n        /* \"#utility.yul\":16854:16860   */\n      dup4\n        /* \"#utility.yul\":16847:16911   */\n      sstore\n        /* \"#utility.yul\":16769:16925   */\n      pop\n        /* \"#utility.yul\":16746:16925   */\n    tag_384:\n        /* \"#utility.yul\":16971:16972   */\n      0x01\n        /* \"#utility.yul\":16967:16968   */\n      0x02\n        /* \"#utility.yul\":16959:16965   */\n      dup9\n        /* \"#utility.yul\":16955:16969   */\n      mul\n        /* \"#utility.yul\":16951:16973   */\n      add\n        /* \"#utility.yul\":16945:16949   */\n      dup9\n        /* \"#utility.yul\":16938:16974   */\n      sstore\n        /* \"#utility.yul\":16373:16984   */\n      pop\n      pop\n      pop\n        /* \"#utility.yul\":16336:17223   */\n    tag_376:\n      pop\n        /* \"#utility.yul\":15926:17229   */\n      pop\n      pop\n      pop\n        /* \"#utility.yul\":15834:17229   */\n      pop\n      pop\n      jump\t// out\n        /* \"#utility.yul\":17235:17415   */\n    tag_189:\n        /* \"#utility.yul\":17283:17360   */\n      0x4e487b7100000000000000000000000000000000000000000000000000000000\n        /* \"#utility.yul\":17280:17281   */\n      0x00\n        /* \"#utility.yul\":17273:17361   */\n      mstore\n        /* \"#utility.yul\":17380:17384   */\n      0x11\n        /* \"#utility.yul\":17377:17378   */\n      0x04\n        /* \"#utility.yul\":17370:17385   */\n      mstore\n        /* \"#utility.yul\":17404:17408   */\n      0x24\n        /* \"#utility.yul\":17401:17402   */\n      0x00\n        /* \"#utility.yul\":17394:17409   */\n      revert\n        /* \"#utility.yul\":17421:17615   */\n    tag_67:\n        /* \"#utility.yul\":17461:17465   */\n      0x00\n        /* \"#utility.yul\":17481:17501   */\n      tag_388\n        /* \"#utility.yul\":17499:17500   */\n      dup3\n        /* \"#utility.yul\":17481:17501   */\n      tag_155\n      jump\t// in\n    tag_388:\n        /* \"#utility.yul\":17476:17501   */\n      swap2\n      pop\n        /* \"#utility.yul\":17515:17535   */\n      tag_389\n        /* \"#utility.yul\":17533:17534   */\n      dup4\n        /* \"#utility.yul\":17515:17535   */\n      tag_155\n      jump\t// in\n    tag_389:\n        /* \"#utility.yul\":17510:17535   */\n      swap3\n      pop\n        /* \"#utility.yul\":17559:17560   */\n      dup3\n        /* \"#utility.yul\":17556:17557   */\n      dup3\n        /* \"#utility.yul\":17552:17561   */\n      sub\n        /* \"#utility.yul\":17544:17561   */\n      swap1\n      pop\n        /* \"#utility.yul\":17583:17584   */\n      dup2\n        /* \"#utility.yul\":17577:17581   */\n      dup2\n        /* \"#utility.yul\":17574:17585   */\n      gt\n        /* \"#utility.yul\":17571:17608   */\n      iszero\n      tag_390\n      jumpi\n        /* \"#utility.yul\":17588:17606   */\n      tag_391\n      tag_189\n      jump\t// in\n    tag_391:\n        /* \"#utility.yul\":17571:17608   */\n    tag_390:\n        /* \"#utility.yul\":17421:17615   */\n      swap3\n      swap2\n      pop\n      pop\n      jump\t// out\n        /* \"#utility.yul\":17621:17801   */\n    tag_105:\n        /* \"#utility.yul\":17669:17746   */\n      0x4e487b7100000000000000000000000000000000000000000000000000000000\n        /* \"#utility.yul\":17666:17667   */\n      0x00\n        /* \"#utility.yul\":17659:17747   */\n      mstore\n        /* \"#utility.yul\":17766:17770   */\n      0x32\n        /* \"#utility.yul\":17763:17764   */\n      0x04\n        /* \"#utility.yul\":17756:17771   */\n      mstore\n        /* \"#utility.yul\":17790:17794   */\n      0x24\n        /* \"#utility.yul\":17787:17788   */\n      0x00\n        /* \"#utility.yul\":17780:17795   */\n      revert\n        /* \"#utility.yul\":17807:17966   */\n    tag_190:\n        /* \"#utility.yul\":17947:17958   */\n      0x4e6f7420466f756e640000000000000000000000000000000000000000000000\n        /* \"#utility.yul\":17943:17944   */\n      0x00\n        /* \"#utility.yul\":17935:17941   */\n      dup3\n        /* \"#utility.yul\":17931:17945   */\n      add\n        /* \"#utility.yul\":17924:17959   */\n      mstore\n        /* \"#utility.yul\":17807:17966   */\n      pop\n      jump\t// out\n        /* \"#utility.yul\":17972:18337   */\n    tag_191:\n        /* \"#utility.yul\":18114:18117   */\n      0x00\n        /* \"#utility.yul\":18135:18201   */\n      tag_395\n        /* \"#utility.yul\":18199:18200   */\n      0x09\n        /* \"#utility.yul\":18194:18197   */\n      dup4\n        /* \"#utility.yul\":18135:18201   */\n      tag_160\n      jump\t// in\n    tag_395:\n        /* \"#utility.yul\":18128:18201   */\n      swap2\n      pop\n        /* \"#utility.yul\":18210:18303   */\n      tag_396\n        /* \"#utility.yul\":18299:18302   */\n      dup3\n        /* \"#utility.yul\":18210:18303   */\n      tag_190\n      jump\t// in\n    tag_396:\n        /* \"#utility.yul\":18328:18330   */\n      0x20\n        /* \"#utility.yul\":18323:18326   */\n      dup3\n        /* \"#utility.yul\":18319:18331   */\n      add\n        /* \"#utility.yul\":18312:18331   */\n      swap1\n      pop\n        /* \"#utility.yul\":17972:18337   */\n      swap2\n      swap1\n      pop\n      jump\t// out\n        /* \"#utility.yul\":18343:18762   */\n    tag_109:\n        /* \"#utility.yul\":18509:18513   */\n      0x00\n        /* \"#utility.yul\":18547:18549   */\n      0x20\n        /* \"#utility.yul\":18536:18545   */\n      dup3\n        /* \"#utility.yul\":18532:18550   */\n      add\n        /* \"#utility.yul\":18524:18550   */\n      swap1\n      pop\n        /* \"#utility.yul\":18596:18605   */\n      dup2\n        /* \"#utility.yul\":18590:18594   */\n      dup2\n        /* \"#utility.yul\":18586:18606   */\n      sub\n        /* \"#utility.yul\":18582:18583   */\n      0x00\n        /* \"#utility.yul\":18571:18580   */\n      dup4\n        /* \"#utility.yul\":18567:18584   */\n      add\n        /* \"#utility.yul\":18560:18607   */\n      mstore\n        /* \"#utility.yul\":18624:18755   */\n      tag_398\n        /* \"#utility.yul\":18750:18754   */\n      dup2\n        /* \"#utility.yul\":18624:18755   */\n      tag_191\n      jump\t// in\n    tag_398:\n        /* \"#utility.yul\":18616:18755   */\n      swap1\n      pop\n        /* \"#utility.yul\":18343:18762   */\n      swap2\n      swap1\n      pop\n      jump\t// out\n        /* \"#utility.yul\":18768:18937   */\n    tag_192:\n        /* \"#utility.yul\":18908:18929   */\n      0x496e646578206f7574206f6620626f756e647300000000000000000000000000\n        /* \"#utility.yul\":18904:18905   */\n      0x00\n        /* \"#utility.yul\":18896:18902   */\n      dup3\n        /* \"#utility.yul\":18892:18906   */\n      add\n        /* \"#utility.yul\":18885:18930   */\n      mstore\n        /* \"#utility.yul\":18768:18937   */\n      pop\n      jump\t// out\n        /* \"#utility.yul\":18943:19309   */\n    tag_193:\n        /* \"#utility.yul\":19085:19088   */\n      0x00\n        /* \"#utility.yul\":19106:19173   */\n      tag_401\n        /* \"#utility.yul\":19170:19172   */\n      0x13\n        /* \"#utility.yul\":19165:19168   */\n      dup4\n        /* \"#utility.yul\":19106:19173   */\n      tag_160\n      jump\t// in\n    tag_401:\n        /* \"#utility.yul\":19099:19173   */\n      swap2\n      pop\n        /* \"#utility.yul\":19182:19275   */\n      tag_402\n        /* \"#utility.yul\":19271:19274   */\n      dup3\n        /* \"#utility.yul\":19182:19275   */\n      tag_192\n      jump\t// in\n    tag_402:\n        /* \"#utility.yul\":19300:19302   */\n      0x20\n        /* \"#utility.yul\":19295:19298   */\n      dup3\n        /* \"#utility.yul\":19291:19303   */\n      add\n        /* \"#utility.yul\":19284:19303   */\n      swap1\n      pop\n        /* \"#utility.yul\":18943:19309   */\n      swap2\n      swap1\n      pop\n      jump\t// out\n        /* \"#utility.yul\":19315:19734   */\n    tag_113:\n        /* \"#utility.yul\":19481:19485   */\n      0x00\n        /* \"#utility.yul\":19519:19521   */\n      0x20\n        /* \"#utility.yul\":19508:19517   */\n      dup3\n        /* \"#utility.yul\":19504:19522   */\n      add\n        /* \"#utility.yul\":19496:19522   */\n      swap1\n      pop\n        /* \"#utility.yul\":19568:19577   */\n      dup2\n        /* \"#utility.yul\":19562:19566   */\n      dup2\n        /* \"#utility.yul\":19558:19578   */\n      sub\n        /* \"#utility.yul\":19554:19555   */\n      0x00\n        /* \"#utility.yul\":19543:19552   */\n      dup4\n        /* \"#utility.yul\":19539:19556   */\n      add\n        /* \"#utility.yul\":19532:19579   */\n      mstore\n        /* \"#utility.yul\":19596:19727   */\n      tag_404\n        /* \"#utility.yul\":19722:19726   */\n      dup2\n        /* \"#utility.yul\":19596:19727   */\n      tag_193\n      jump\t// in\n    tag_404:\n        /* \"#utility.yul\":19588:19727   */\n      swap1\n      pop\n        /* \"#utility.yul\":19315:19734   */\n      swap2\n      swap1\n      pop\n      jump\t// out\n        /* \"#utility.yul\":19740:19931   */\n    tag_119:\n        /* \"#utility.yul\":19780:19783   */\n      0x00\n        /* \"#utility.yul\":19799:19819   */\n      tag_406\n        /* \"#utility.yul\":19817:19818   */\n      dup3\n        /* \"#utility.yul\":19799:19819   */\n      tag_155\n      jump\t// in\n    tag_406:\n        /* \"#utility.yul\":19794:19819   */\n      swap2\n      pop\n        /* \"#utility.yul\":19833:19853   */\n      tag_407\n        /* \"#utility.yul\":19851:19852   */\n      dup4\n        /* \"#utility.yul\":19833:19853   */\n      tag_155\n      jump\t// in\n    tag_407:\n        /* \"#utility.yul\":19828:19853   */\n      swap3\n      pop\n        /* \"#utility.yul\":19876:19877   */\n      dup3\n        /* \"#utility.yul\":19873:19874   */\n      dup3\n        /* \"#utility.yul\":19869:19878   */\n      add\n        /* \"#utility.yul\":19862:19878   */\n      swap1\n      pop\n        /* \"#utility.yul\":19897:19900   */\n      dup1\n        /* \"#utility.yul\":19894:19895   */\n      dup3\n        /* \"#utility.yul\":19891:19901   */\n      gt\n        /* \"#utility.yul\":19888:19924   */\n      iszero\n      tag_408\n      jumpi\n        /* \"#utility.yul\":19904:19922   */\n      tag_409\n      tag_189\n      jump\t// in\n    tag_409:\n        /* \"#utility.yul\":19888:19924   */\n    tag_408:\n        /* \"#utility.yul\":19740:19931   */\n      swap3\n      swap2\n      pop\n      pop\n      jump\t// out\n        /* \"#utility.yul\":19937:20117   */\n    tag_128:\n        /* \"#utility.yul\":19985:20062   */\n      0x4e487b7100000000000000000000000000000000000000000000000000000000\n        /* \"#utility.yul\":19982:19983   */\n      0x00\n        /* \"#utility.yul\":19975:20063   */\n      mstore\n        /* \"#utility.yul\":20082:20086   */\n      0x31\n        /* \"#utility.yul\":20079:20080   */\n      0x04\n        /* \"#utility.yul\":20072:20087   */\n      mstore\n        /* \"#utility.yul\":20106:20110   */\n      0x24\n        /* \"#utility.yul\":20103:20104   */\n      0x00\n        /* \"#utility.yul\":20096:20111   */\n      revert\n\n    auxdata: 0xa2646970667358221220c08404f61bb720a7b1bfc6a42c1f7c720dc6afa5a704a20e76df9bec2bfc2e1a64736f6c63430008170033\n}\n","bytecode":{"linkReferences":{},"object":"608060405234801561000f575f80fd5b50335f806101000a81548173ffffffffffffffffffffffffffffffffffffffff021916908373ffffffffffffffffffffffffffffffffffffffff1602179055506116808061005c5f395ff3fe608060405234801561000f575f80fd5b506004361061007b575f3560e01c80639f4216e8116100595780639f4216e8146100e9578063a87430ba14610119578063ada447961461014d578063b5cb15f71461017d5761007b565b8063481c6a751461007f5780635c60f2261461009d5780636f7fcddb146100b9575b5f80fd5b61008761019b565b6040516100949190610bb6565b60405180910390f35b6100b760048036038101906100b29190610c0a565b6101be565b005b6100d360048036038101906100ce9190610d71565b6102e1565b6040516100e09190610e5d565b60405180910390f35b61010360048036038101906100fe9190610ea0565b6104a7565b6040516101109190610bb6565b60405180910390f35b610133600480360381019061012e9190610c0a565b6104e2565b604051610144959493929190610f45565b60405180910390f35b61016760048036038101906101629190610fb2565b61074b565b60405161017491906110b3565b60405180910390f35b6101856108e0565b6040516101929190610e5d565b60405180910390f35b5f8054906101000a900473ffffffffffffffffffffffffffffffffffffffff1681565b5f73ffffffffffffffffffffffffffffffffffffffff168173ffffffffffffffffffffffffffffffffffffffff160361022c576040517f08c379a000000000000000000000000000000000000000000000000000000000815260040161022390611116565b60405180910390fd5b60015f8273ffffffffffffffffffffffffffffffffffffffff1673ffffffffffffffffffffffffffffffffffffffff1681526020019081526020015f205f8082015f6102789190610b1f565b600182015f6102879190610b1f565b600282015f6102969190610b1f565b600382015f6102a59190610b1f565b600482015f6101000a81549073ffffffffffffffffffffffffffffffffffffffff021916905550506102de6102d9826108ec565b6109c4565b50565b5f8042336040516020016102f6929190611199565b6040516020818303038152906040528051906020012060601c90506040518060a001604052808781526020018681526020018581526020018481526020018273ffffffffffffffffffffffffffffffffffffffff1681525060015f8373ffffffffffffffffffffffffffffffffffffffff1673ffffffffffffffffffffffffffffffffffffffff1681526020019081526020015f205f820151815f01908161039e91906113be565b5060208201518160010190816103b491906113be565b5060408201518160020190816103ca91906113be565b5060608201518160030190816103e091906113be565b506080820151816004015f6101000a81548173ffffffffffffffffffffffffffffffffffffffff021916908373ffffffffffffffffffffffffffffffffffffffff160217905550905050600281908060018154018082558091505060019003905f5260205f20015f9091909190916101000a81548173ffffffffffffffffffffffffffffffffffffffff021916908373ffffffffffffffffffffffffffffffffffffffff160217905550600160028054905061049c91906114ba565b915050949350505050565b600281815481106104b6575f80fd5b905f5260205f20015f915054906101000a900473ffffffffffffffffffffffffffffffffffffffff1681565b6001602052805f5260405f205f91509050805f018054610501906111f1565b80601f016020809104026020016040519081016040528092919081815260200182805461052d906111f1565b80156105785780601f1061054f57610100808354040283529160200191610578565b820191905f5260205f20905b81548152906001019060200180831161055b57829003601f168201915b50505050509080600101805461058d906111f1565b80601f01602080910402602001604051908101604052809291908181526020018280546105b9906111f1565b80156106045780601f106105db57610100808354040283529160200191610604565b820191905f5260205f20905b8154815290600101906020018083116105e757829003601f168201915b505050505090806002018054610619906111f1565b80601f0160208091040260200160405190810160405280929190818152602001828054610645906111f1565b80156106905780601f1061066757610100808354040283529160200191610690565b820191905f5260205f20905b81548152906001019060200180831161067357829003601f168201915b5050505050908060030180546106a5906111f1565b80601f01602080910402602001604051908101604052809291908181526020018280546106d1906111f1565b801561071c5780601f106106f35761010080835404028352916020019161071c565b820191905f5260205f20905b8154815290600101906020018083116106ff57829003601f168201915b505050505090806004015f9054906101000a900473ffffffffffffffffffffffffffffffffffffffff16905085565b5f8073ffffffffffffffffffffffffffffffffffffffff168673ffffffffffffffffffffffffffffffffffffffff16036107ba576040517f08c379a00000000000000000000000000000000000000000000000000000000081526004016107b190611116565b60405180910390fd5b6040518060a001604052808681526020018581526020018481526020018381526020018773ffffffffffffffffffffffffffffffffffffffff1681525060015f8873ffffffffffffffffffffffffffffffffffffffff1673ffffffffffffffffffffffffffffffffffffffff1681526020019081526020015f205f820151815f01908161084791906113be565b50602082015181600101908161085d91906113be565b50604082015181600201908161087391906113be565b50606082015181600301908161088991906113be565b506080820151816004015f6101000a81548173ffffffffffffffffffffffffffffffffffffffff021916908373ffffffffffffffffffffffffffffffffffffffff1602179055509050506001905095945050505050565b5f600280549050905090565b5f805f90505b600280549050811015610983578273ffffffffffffffffffffffffffffffffffffffff166002828154811061092a576109296114ed565b5b905f5260205f20015f9054906101000a900473ffffffffffffffffffffffffffffffffffffffff1673ffffffffffffffffffffffffffffffffffffffff160361097657809150506109bf565b80806001019150506108f2565b506040517f08c379a00000000000000000000000000000000000000000000000000000000081526004016109b690611564565b60405180910390fd5b919050565b6002805490508110610a0b576040517f08c379a0000000000000000000000000000000000000000000000000000000008152600401610a02906115cc565b60405180910390fd5b5f8190505b6001600280549050610a2291906114ba565b811015610ad7576002600182610a3891906115ea565b81548110610a4957610a486114ed565b5b905f5260205f20015f9054906101000a900473ffffffffffffffffffffffffffffffffffffffff1660028281548110610a8557610a846114ed565b5b905f5260205f20015f6101000a81548173ffffffffffffffffffffffffffffffffffffffff021916908373ffffffffffffffffffffffffffffffffffffffff1602179055508080600101915050610a10565b506002805480610aea57610ae961161d565b5b600190038181905f5260205f20015f6101000a81549073ffffffffffffffffffffffffffffffffffffffff0219169055905550565b508054610b2b906111f1565b5f825580601f10610b3c5750610b59565b601f0160209004905f5260205f2090810190610b589190610b5c565b5b50565b5b80821115610b73575f815f905550600101610b5d565b5090565b5f73ffffffffffffffffffffffffffffffffffffffff82169050919050565b5f610ba082610b77565b9050919050565b610bb081610b96565b82525050565b5f602082019050610bc95f830184610ba7565b92915050565b5f604051905090565b5f80fd5b5f80fd5b610be981610b96565b8114610bf3575f80fd5b50565b5f81359050610c0481610be0565b92915050565b5f60208284031215610c1f57610c1e610bd8565b5b5f610c2c84828501610bf6565b91505092915050565b5f80fd5b5f80fd5b5f601f19601f8301169050919050565b7f4e487b71000000000000000000000000000000000000000000000000000000005f52604160045260245ffd5b610c8382610c3d565b810181811067ffffffffffffffff82111715610ca257610ca1610c4d565b5b80604052505050565b5f610cb4610bcf565b9050610cc08282610c7a565b919050565b5f67ffffffffffffffff821115610cdf57610cde610c4d565b5b610ce882610c3d565b9050602081019050919050565b828183375f83830152505050565b5f610d15610d1084610cc5565b610cab565b905082815260208101848484011115610d3157610d30610c39565b5b610d3c848285610cf5565b509392505050565b5f82601f830112610d5857610d57610c35565b5b8135610d68848260208601610d03565b91505092915050565b5f805f8060808587031215610d8957610d88610bd8565b5b5f85013567ffffffffffffffff811115610da657610da5610bdc565b5b610db287828801610d44565b945050602085013567ffffffffffffffff811115610dd357610dd2610bdc565b5b610ddf87828801610d44565b935050604085013567ffffffffffffffff811115610e0057610dff610bdc565b5b610e0c87828801610d44565b925050606085013567ffffffffffffffff811115610e2d57610e2c610bdc565b5b610e3987828801610d44565b91505092959194509250565b5f819050919050565b610e5781610e45565b82525050565b5f602082019050610e705f830184610e4e565b92915050565b610e7f81610e45565b8114610e89575f80fd5b50565b5f81359050610e9a81610e76565b92915050565b5f60208284031215610eb557610eb4610bd8565b5b5f610ec284828501610e8c565b91505092915050565b5f81519050919050565b5f82825260208201905092915050565b5f5b83811015610f02578082015181840152602081019050610ee7565b5f8484015250505050565b5f610f1782610ecb565b610f218185610ed5565b9350610f31818560208601610ee5565b610f3a81610c3d565b840191505092915050565b5f60a0820190508181035f830152610f5d8188610f0d565b90508181036020830152610f718187610f0d565b90508181036040830152610f858186610f0d565b90508181036060830152610f998185610f0d565b9050610fa86080830184610ba7565b9695505050505050565b5f805f805f60a08688031215610fcb57610fca610bd8565b5b5f610fd888828901610bf6565b955050602086013567ffffffffffffffff811115610ff957610ff8610bdc565b5b61100588828901610d44565b945050604086013567ffffffffffffffff81111561102657611025610bdc565b5b61103288828901610d44565b935050606086013567ffffffffffffffff81111561105357611052610bdc565b5b61105f88828901610d44565b925050608086013567ffffffffffffffff8111156110805761107f610bdc565b5b61108c88828901610d44565b9150509295509295909350565b5f8115159050919050565b6110ad81611099565b82525050565b5f6020820190506110c65f8301846110a4565b92915050565b7f496e76616c6964206164647265737300000000000000000000000000000000005f82015250565b5f611100600f83610ed5565b915061110b826110cc565b602082019050919050565b5f6020820190508181035f83015261112d816110f4565b9050919050565b5f819050919050565b61114e61114982610e45565b611134565b82525050565b5f8160601b9050919050565b5f61116a82611154565b9050919050565b5f61117b82611160565b9050919050565b61119361118e82610b96565b611171565b82525050565b5f6111a4828561113d565b6020820191506111b48284611182565b6014820191508190509392505050565b7f4e487b71000000000000000000000000000000000000000000000000000000005f52602260045260245ffd5b5f600282049050600182168061120857607f821691505b60208210810361121b5761121a6111c4565b5b50919050565b5f819050815f5260205f209050919050565b5f6020601f8301049050919050565b5f82821b905092915050565b5f6008830261127d7fffffffffffffffffffffffffffffffffffffffffffffffffffffffffffffffff82611242565b6112878683611242565b95508019841693508086168417925050509392505050565b5f819050919050565b5f6112c26112bd6112b884610e45565b61129f565b610e45565b9050919050565b5f819050919050565b6112db836112a8565b6112ef6112e7826112c9565b84845461124e565b825550505050565b5f90565b6113036112f7565b61130e8184846112d2565b505050565b5b81811015611331576113265f826112fb565b600181019050611314565b5050565b601f8211156113765761134781611221565b61135084611233565b8101602085101561135f578190505b61137361136b85611233565b830182611313565b50505b505050565b5f82821c905092915050565b5f6113965f198460080261137b565b1980831691505092915050565b5f6113ae8383611387565b9150826002028217905092915050565b6113c782610ecb565b67ffffffffffffffff8111156113e0576113df610c4d565b5b6113ea82546111f1565b6113f5828285611335565b5f60209050601f831160018114611426575f8415611414578287015190505b61141e85826113a3565b865550611485565b601f19841661143486611221565b5f5b8281101561145b57848901518255600182019150602085019450602081019050611436565b868310156114785784890151611474601f891682611387565b8355505b6001600288020188555050505b505050505050565b7f4e487b71000000000000000000000000000000000000000000000000000000005f52601160045260245ffd5b5f6114c482610e45565b91506114cf83610e45565b92508282039050818111156114e7576114e661148d565b5b92915050565b7f4e487b71000000000000000000000000000000000000000000000000000000005f52603260045260245ffd5b7f4e6f7420466f756e6400000000000000000000000000000000000000000000005f82015250565b5f61154e600983610ed5565b91506115598261151a565b602082019050919050565b5f6020820190508181035f83015261157b81611542565b9050919050565b7f496e646578206f7574206f6620626f756e6473000000000000000000000000005f82015250565b5f6115b6601383610ed5565b91506115c182611582565b602082019050919050565b5f6020820190508181035f8301526115e3816115aa565b9050919050565b5f6115f482610e45565b91506115ff83610e45565b92508282019050808211156116175761161661148d565b5b92915050565b7f4e487b71000000000000000000000000000000000000000000000000000000005f52603160045260245ffdfea2646970667358221220c08404f61bb720a7b1bfc6a42c1f7c720dc6afa5a704a20e76df9bec2bfc2e1a64736f6c63430008170033","opcodes":"PUSH1 0x80 PUSH1 0x40 MSTORE CALLVALUE DUP1 ISZERO PUSH2 0xF JUMPI PUSH0 DUP1 REVERT JUMPDEST POP CALLER PUSH0 DUP1 PUSH2 0x100 EXP DUP2 SLOAD DUP2 PUSH20 0xFFFFFFFFFFFFFFFFFFFFFFFFFFFFFFFFFFFFFFFF MUL NOT AND SWAP1 DUP4 PUSH20 0xFFFFFFFFFFFFFFFFFFFFFFFFFFFFFFFFFFFFFFFF AND MUL OR SWAP1 SSTORE POP PUSH2 0x1680 DUP1 PUSH2 0x5C PUSH0 CODECOPY PUSH0 RETURN INVALID PUSH1 0x80 PUSH1 0x40 MSTORE CALLVALUE DUP1 ISZERO PUSH2 0xF JUMPI PUSH0 DUP1 REVERT JUMPDEST POP PUSH1 0x4 CALLDATASIZE LT PUSH2 0x7B JUMPI PUSH0 CALLDATALOAD PUSH1 0xE0 SHR DUP1 PUSH4 0x9F4216E8 GT PUSH2 0x59 JUMPI DUP1 PUSH4 0x9F4216E8 EQ PUSH2 0xE9 JUMPI DUP1 PUSH4 0xA87430BA EQ PUSH2 0x119 JUMPI DUP1 PUSH4 0xADA44796 EQ PUSH2 0x14D JUMPI DUP1 PUSH4 0xB5CB15F7 EQ PUSH2 0x17D JUMPI PUSH2 0x7B JUMP JUMPDEST DUP1 PUSH4 0x481C6A75 EQ PUSH2 0x7F JUMPI DUP1 PUSH4 0x5C60F226 EQ PUSH2 0x9D JUMPI DUP1 PUSH4 0x6F7FCDDB EQ PUSH2 0xB9 JUMPI JUMPDEST PUSH0 DUP1 REVERT JUMPDEST PUSH2 0x87 PUSH2 0x19B JUMP JUMPDEST PUSH1 0x40 MLOAD PUSH2 0x94 SWAP2 SWAP1 PUSH2 0xBB6 JUMP JUMPDEST PUSH1 0x40 MLOAD DUP1 SWAP2 SUB SWAP1 RETURN JUMPDEST PUSH2 0xB7 PUSH1 0x4 DUP1 CALLDATASIZE SUB DUP2 ADD SWAP1 PUSH2 0xB2 SWAP2 SWAP1 PUSH2 0xC0A JUMP JUMPDEST PUSH2 0x1BE JUMP JUMPDEST STOP JUMPDEST PUSH2 0xD3 PUSH1 0x4 DUP1 CALLDATASIZE SUB DUP2 ADD SWAP1 PUSH2 0xCE SWAP2 SWAP1 PUSH2 0xD71 JUMP JUMPDEST PUSH2 0x2E1 JUMP JUMPDEST PUSH1 0x40 MLOAD PUSH2 0xE0 SWAP2 SWAP1 PUSH2 0xE5D JUMP JUMPDEST PUSH1 0x40 MLOAD DUP1 SWAP2 SUB SWAP1 RETURN JUMPDEST PUSH2 0x103 PUSH1 0x4 DUP1 CALLDATASIZE SUB DUP2 ADD SWAP1 PUSH2 0xFE SWAP2 SWAP1 PUSH2 0xEA0 JUMP JUMPDEST PUSH2 0x4A7 JUMP JUMPDEST PUSH1 0x40 MLOAD PUSH2 0x110 SWAP2 SWAP1 PUSH2 0xBB6 JUMP JUMPDEST PUSH1 0x40 MLOAD DUP1 SWAP2 SUB SWAP1 RETURN JUMPDEST PUSH2 0x133 PUSH1 0x4 DUP1 CALLDATASIZE SUB DUP2 ADD SWAP1 PUSH2 0x12E SWAP2 SWAP1 PUSH2 0xC0A JUMP JUMPDEST PUSH2 0x4E2 JUMP JUMPDEST PUSH1 0x40 MLOAD PUSH2 0x144 SWAP6 SWAP5 SWAP4 SWAP3 SWAP2 SWAP1 PUSH2 0xF45 JUMP JUMPDEST PUSH1 0x40 MLOAD DUP1 SWAP2 SUB SWAP1 RETURN JUMPDEST PUSH2 0x167 PUSH1 0x4 DUP1 CALLDATASIZE SUB DUP2 ADD SWAP1 PUSH2 0x162 SWAP2 SWAP1 PUSH2 0xFB2 JUMP JUMPDEST PUSH2 0x74B JUMP JUMPDEST PUSH1 0x40 MLOAD PUSH2 0x174 SWAP2 SWAP1 PUSH2 0x10B3 JUMP JUMPDEST PUSH1 0x40 MLOAD DUP1 SWAP2 SUB SWAP1 RETURN JUMPDEST PUSH2 0x185 PUSH2 0x8E0 JUMP JUMPDEST PUSH1 0x40 MLOAD PUSH2 0x192 SWAP2 SWAP1 PUSH2 0xE5D JUMP JUMPDEST PUSH1 0x40 MLOAD DUP1 SWAP2 SUB SWAP1 RETURN JUMPDEST PUSH0 DUP1 SLOAD SWAP1 PUSH2 0x100 EXP SWAP1 DIV PUSH20 0xFFFFFFFFFFFFFFFFFFFFFFFFFFFFFFFFFFFFFFFF AND DUP2 JUMP JUMPDEST PUSH0 PUSH20 0xFFFFFFFFFFFFFFFFFFFFFFFFFFFFFFFFFFFFFFFF AND DUP2 PUSH20 0xFFFFFFFFFFFFFFFFFFFFFFFFFFFFFFFFFFFFFFFF AND SUB PUSH2 0x22C JUMPI PUSH1 0x40 MLOAD PUSH32 0x8C379A000000000000000000000000000000000000000000000000000000000 DUP2 MSTORE PUSH1 0x4 ADD PUSH2 0x223 SWAP1 PUSH2 0x1116 JUMP JUMPDEST PUSH1 0x40 MLOAD DUP1 SWAP2 SUB SWAP1 REVERT JUMPDEST PUSH1 0x1 PUSH0 DUP3 PUSH20 0xFFFFFFFFFFFFFFFFFFFFFFFFFFFFFFFFFFFFFFFF AND PUSH20 0xFFFFFFFFFFFFFFFFFFFFFFFFFFFFFFFFFFFFFFFF AND DUP2 MSTORE PUSH1 0x20 ADD SWAP1 DUP2 MSTORE PUSH1 0x20 ADD PUSH0 KECCAK256 PUSH0 DUP1 DUP3 ADD PUSH0 PUSH2 0x278 SWAP2 SWAP1 PUSH2 0xB1F JUMP JUMPDEST PUSH1 0x1 DUP3 ADD PUSH0 PUSH2 0x287 SWAP2 SWAP1 PUSH2 0xB1F JUMP JUMPDEST PUSH1 0x2 DUP3 ADD PUSH0 PUSH2 0x296 SWAP2 SWAP1 PUSH2 0xB1F JUMP JUMPDEST PUSH1 0x3 DUP3 ADD PUSH0 PUSH2 0x2A5 SWAP2 SWAP1 PUSH2 0xB1F JUMP JUMPDEST PUSH1 0x4 DUP3 ADD PUSH0 PUSH2 0x100 EXP DUP2 SLOAD SWAP1 PUSH20 0xFFFFFFFFFFFFFFFFFFFFFFFFFFFFFFFFFFFFFFFF MUL NOT AND SWAP1 SSTORE POP POP PUSH2 0x2DE PUSH2 0x2D9 DUP3 PUSH2 0x8EC JUMP JUMPDEST PUSH2 0x9C4 JUMP JUMPDEST POP JUMP JUMPDEST PUSH0 DUP1 TIMESTAMP CALLER PUSH1 0x40 MLOAD PUSH1 0x20 ADD PUSH2 0x2F6 SWAP3 SWAP2 SWAP1 PUSH2 0x1199 JUMP JUMPDEST PUSH1 0x40 MLOAD PUSH1 0x20 DUP2 DUP4 SUB SUB DUP2 MSTORE SWAP1 PUSH1 0x40 MSTORE DUP1 MLOAD SWAP1 PUSH1 0x20 ADD KECCAK256 PUSH1 0x60 SHR SWAP1 POP PUSH1 0x40 MLOAD DUP1 PUSH1 0xA0 ADD PUSH1 0x40 MSTORE DUP1 DUP8 DUP2 MSTORE PUSH1 0x20 ADD DUP7 DUP2 MSTORE PUSH1 0x20 ADD DUP6 DUP2 MSTORE PUSH1 0x20 ADD DUP5 DUP2 MSTORE PUSH1 0x20 ADD DUP3 PUSH20 0xFFFFFFFFFFFFFFFFFFFFFFFFFFFFFFFFFFFFFFFF AND DUP2 MSTORE POP PUSH1 0x1 PUSH0 DUP4 PUSH20 0xFFFFFFFFFFFFFFFFFFFFFFFFFFFFFFFFFFFFFFFF AND PUSH20 0xFFFFFFFFFFFFFFFFFFFFFFFFFFFFFFFFFFFFFFFF AND DUP2 MSTORE PUSH1 0x20 ADD SWAP1 DUP2 MSTORE PUSH1 0x20 ADD PUSH0 KECCAK256 PUSH0 DUP3 ADD MLOAD DUP2 PUSH0 ADD SWAP1 DUP2 PUSH2 0x39E SWAP2 SWAP1 PUSH2 0x13BE JUMP JUMPDEST POP PUSH1 0x20 DUP3 ADD MLOAD DUP2 PUSH1 0x1 ADD SWAP1 DUP2 PUSH2 0x3B4 SWAP2 SWAP1 PUSH2 0x13BE JUMP JUMPDEST POP PUSH1 0x40 DUP3 ADD MLOAD DUP2 PUSH1 0x2 ADD SWAP1 DUP2 PUSH2 0x3CA SWAP2 SWAP1 PUSH2 0x13BE JUMP JUMPDEST POP PUSH1 0x60 DUP3 ADD MLOAD DUP2 PUSH1 0x3 ADD SWAP1 DUP2 PUSH2 0x3E0 SWAP2 SWAP1 PUSH2 0x13BE JUMP JUMPDEST POP PUSH1 0x80 DUP3 ADD MLOAD DUP2 PUSH1 0x4 ADD PUSH0 PUSH2 0x100 EXP DUP2 SLOAD DUP2 PUSH20 0xFFFFFFFFFFFFFFFFFFFFFFFFFFFFFFFFFFFFFFFF MUL NOT AND SWAP1 DUP4 PUSH20 0xFFFFFFFFFFFFFFFFFFFFFFFFFFFFFFFFFFFFFFFF AND MUL OR SWAP1 SSTORE POP SWAP1 POP POP PUSH1 0x2 DUP2 SWAP1 DUP1 PUSH1 0x1 DUP2 SLOAD ADD DUP1 DUP3 SSTORE DUP1 SWAP2 POP POP PUSH1 0x1 SWAP1 SUB SWAP1 PUSH0 MSTORE PUSH1 0x20 PUSH0 KECCAK256 ADD PUSH0 SWAP1 SWAP2 SWAP1 SWAP2 SWAP1 SWAP2 PUSH2 0x100 EXP DUP2 SLOAD DUP2 PUSH20 0xFFFFFFFFFFFFFFFFFFFFFFFFFFFFFFFFFFFFFFFF MUL NOT AND SWAP1 DUP4 PUSH20 0xFFFFFFFFFFFFFFFFFFFFFFFFFFFFFFFFFFFFFFFF AND MUL OR SWAP1 SSTORE POP PUSH1 0x1 PUSH1 0x2 DUP1 SLOAD SWAP1 POP PUSH2 0x49C SWAP2 SWAP1 PUSH2 0x14BA JUMP JUMPDEST SWAP2 POP POP SWAP5 SWAP4 POP POP POP POP JUMP JUMPDEST PUSH1 0x2 DUP2 DUP2 SLOAD DUP2 LT PUSH2 0x4B6 JUMPI PUSH0 DUP1 REVERT JUMPDEST SWAP1 PUSH0 MSTORE PUSH1 0x20 PUSH0 KECCAK256 ADD PUSH0 SWAP2 POP SLOAD SWAP1 PUSH2 0x100 EXP SWAP1 DIV PUSH20 0xFFFFFFFFFFFFFFFFFFFFFFFFFFFFFFFFFFFFFFFF AND DUP2 JUMP JUMPDEST PUSH1 0x1 PUSH1 0x20 MSTORE DUP1 PUSH0 MSTORE PUSH1 0x40 PUSH0 KECCAK256 PUSH0 SWAP2 POP SWAP1 POP DUP1 PUSH0 ADD DUP1 SLOAD PUSH2 0x501 SWAP1 PUSH2 0x11F1 JUMP JUMPDEST DUP1 PUSH1 0x1F ADD PUSH1 0x20 DUP1 SWAP2 DIV MUL PUSH1 0x20 ADD PUSH1 0x40 MLOAD SWAP1 DUP2 ADD PUSH1 0x40 MSTORE DUP1 SWAP3 SWAP2 SWAP1 DUP2 DUP2 MSTORE PUSH1 0x20 ADD DUP3 DUP1 SLOAD PUSH2 0x52D SWAP1 PUSH2 0x11F1 JUMP JUMPDEST DUP1 ISZERO PUSH2 0x578 JUMPI DUP1 PUSH1 0x1F LT PUSH2 0x54F JUMPI PUSH2 0x100 DUP1 DUP4 SLOAD DIV MUL DUP4 MSTORE SWAP2 PUSH1 0x20 ADD SWAP2 PUSH2 0x578 JUMP JUMPDEST DUP3 ADD SWAP2 SWAP1 PUSH0 MSTORE PUSH1 0x20 PUSH0 KECCAK256 SWAP1 JUMPDEST DUP2 SLOAD DUP2 MSTORE SWAP1 PUSH1 0x1 ADD SWAP1 PUSH1 0x20 ADD DUP1 DUP4 GT PUSH2 0x55B JUMPI DUP3 SWAP1 SUB PUSH1 0x1F AND DUP3 ADD SWAP2 JUMPDEST POP POP POP POP POP SWAP1 DUP1 PUSH1 0x1 ADD DUP1 SLOAD PUSH2 0x58D SWAP1 PUSH2 0x11F1 JUMP JUMPDEST DUP1 PUSH1 0x1F ADD PUSH1 0x20 DUP1 SWAP2 DIV MUL PUSH1 0x20 ADD PUSH1 0x40 MLOAD SWAP1 DUP2 ADD PUSH1 0x40 MSTORE DUP1 SWAP3 SWAP2 SWAP1 DUP2 DUP2 MSTORE PUSH1 0x20 ADD DUP3 DUP1 SLOAD PUSH2 0x5B9 SWAP1 PUSH2 0x11F1 JUMP JUMPDEST DUP1 ISZERO PUSH2 0x604 JUMPI DUP1 PUSH1 0x1F LT PUSH2 0x5DB JUMPI PUSH2 0x100 DUP1 DUP4 SLOAD DIV MUL DUP4 MSTORE SWAP2 PUSH1 0x20 ADD SWAP2 PUSH2 0x604 JUMP JUMPDEST DUP3 ADD SWAP2 SWAP1 PUSH0 MSTORE PUSH1 0x20 PUSH0 KECCAK256 SWAP1 JUMPDEST DUP2 SLOAD DUP2 MSTORE SWAP1 PUSH1 0x1 ADD SWAP1 PUSH1 0x20 ADD DUP1 DUP4 GT PUSH2 0x5E7 JUMPI DUP3 SWAP1 SUB PUSH1 0x1F AND DUP3 ADD SWAP2 JUMPDEST POP POP POP POP POP SWAP1 DUP1 PUSH1 0x2 ADD DUP1 SLOAD PUSH2 0x619 SWAP1 PUSH2 0x11F1 JUMP JUMPDEST DUP1 PUSH1 0x1F ADD PUSH1 0x20 DUP1 SWAP2 DIV MUL PUSH1 0x20 ADD PUSH1 0x40 MLOAD SWAP1 DUP2 ADD PUSH1 0x40 MSTORE DUP1 SWAP3 SWAP2 SWAP1 DUP2 DUP2 MSTORE PUSH1 0x20 ADD DUP3 DUP1 SLOAD PUSH2 0x645 SWAP1 PUSH2 0x11F1 JUMP JUMPDEST DUP1 ISZERO PUSH2 0x690 JUMPI DUP1 PUSH1 0x1F LT PUSH2 0x667 JUMPI PUSH2 0x100 DUP1 DUP4 SLOAD DIV MUL DUP4 MSTORE SWAP2 PUSH1 0x20 ADD SWAP2 PUSH2 0x690 JUMP JUMPDEST DUP3 ADD SWAP2 SWAP1 PUSH0 MSTORE PUSH1 0x20 PUSH0 KECCAK256 SWAP1 JUMPDEST DUP2 SLOAD DUP2 MSTORE SWAP1 PUSH1 0x1 ADD SWAP1 PUSH1 0x20 ADD DUP1 DUP4 GT PUSH2 0x673 JUMPI DUP3 SWAP1 SUB PUSH1 0x1F AND DUP3 ADD SWAP2 JUMPDEST POP POP POP POP POP SWAP1 DUP1 PUSH1 0x3 ADD DUP1 SLOAD PUSH2 0x6A5 SWAP1 PUSH2 0x11F1 JUMP JUMPDEST DUP1 PUSH1 0x1F ADD PUSH1 0x20 DUP1 SWAP2 DIV MUL PUSH1 0x20 ADD PUSH1 0x40 MLOAD SWAP1 DUP2 ADD PUSH1 0x40 MSTORE DUP1 SWAP3 SWAP2 SWAP1 DUP2 DUP2 MSTORE PUSH1 0x20 ADD DUP3 DUP1 SLOAD PUSH2 0x6D1 SWAP1 PUSH2 0x11F1 JUMP JUMPDEST DUP1 ISZERO PUSH2 0x71C JUMPI DUP1 PUSH1 0x1F LT PUSH2 0x6F3 JUMPI PUSH2 0x100 DUP1 DUP4 SLOAD DIV MUL DUP4 MSTORE SWAP2 PUSH1 0x20 ADD SWAP2 PUSH2 0x71C JUMP JUMPDEST DUP3 ADD SWAP2 SWAP1 PUSH0 MSTORE PUSH1 0x20 PUSH0 KECCAK256 SWAP1 JUMPDEST DUP2 SLOAD DUP2 MSTORE SWAP1 PUSH1 0x1 ADD SWAP1 PUSH1 0x20 ADD DUP1 DUP4 GT PUSH2 0x6FF JUMPI DUP3 SWAP1 SUB PUSH1 0x1F AND DUP3 ADD SWAP2 JUMPDEST POP POP POP POP POP SWAP1 DUP1 PUSH1 0x4 ADD PUSH0 SWAP1 SLOAD SWAP1 PUSH2 0x100 EXP SWAP1 DIV PUSH20 0xFFFFFFFFFFFFFFFFFFFFFFFFFFFFFFFFFFFFFFFF AND SWAP1 POP DUP6 JUMP JUMPDEST PUSH0 DUP1 PUSH20 0xFFFFFFFFFFFFFFFFFFFFFFFFFFFFFFFFFFFFFFFF AND DUP7 PUSH20 0xFFFFFFFFFFFFFFFFFFFFFFFFFFFFFFFFFFFFFFFF AND SUB PUSH2 0x7BA JUMPI PUSH1 0x40 MLOAD PUSH32 0x8C379A000000000000000000000000000000000000000000000000000000000 DUP2 MSTORE PUSH1 0x4 ADD PUSH2 0x7B1 SWAP1 PUSH2 0x1116 JUMP JUMPDEST PUSH1 0x40 MLOAD DUP1 SWAP2 SUB SWAP1 REVERT JUMPDEST PUSH1 0x40 MLOAD DUP1 PUSH1 0xA0 ADD PUSH1 0x40 MSTORE DUP1 DUP7 DUP2 MSTORE PUSH1 0x20 ADD DUP6 DUP2 MSTORE PUSH1 0x20 ADD DUP5 DUP2 MSTORE PUSH1 0x20 ADD DUP4 DUP2 MSTORE PUSH1 0x20 ADD DUP8 PUSH20 0xFFFFFFFFFFFFFFFFFFFFFFFFFFFFFFFFFFFFFFFF AND DUP2 MSTORE POP PUSH1 0x1 PUSH0 DUP9 PUSH20 0xFFFFFFFFFFFFFFFFFFFFFFFFFFFFFFFFFFFFFFFF AND PUSH20 0xFFFFFFFFFFFFFFFFFFFFFFFFFFFFFFFFFFFFFFFF AND DUP2 MSTORE PUSH1 0x20 ADD SWAP1 DUP2 MSTORE PUSH1 0x20 ADD PUSH0 KECCAK256 PUSH0 DUP3 ADD MLOAD DUP2 PUSH0 ADD SWAP1 DUP2 PUSH2 0x847 SWAP2 SWAP1 PUSH2 0x13BE JUMP JUMPDEST POP PUSH1 0x20 DUP3 ADD MLOAD DUP2 PUSH1 0x1 ADD SWAP1 DUP2 PUSH2 0x85D SWAP2 SWAP1 PUSH2 0x13BE JUMP JUMPDEST POP PUSH1 0x40 DUP3 ADD MLOAD DUP2 PUSH1 0x2 ADD SWAP1 DUP2 PUSH2 0x873 SWAP2 SWAP1 PUSH2 0x13BE JUMP JUMPDEST POP PUSH1 0x60 DUP3 ADD MLOAD DUP2 PUSH1 0x3 ADD SWAP1 DUP2 PUSH2 0x889 SWAP2 SWAP1 PUSH2 0x13BE JUMP JUMPDEST POP PUSH1 0x80 DUP3 ADD MLOAD DUP2 PUSH1 0x4 ADD PUSH0 PUSH2 0x100 EXP DUP2 SLOAD DUP2 PUSH20 0xFFFFFFFFFFFFFFFFFFFFFFFFFFFFFFFFFFFFFFFF MUL NOT AND SWAP1 DUP4 PUSH20 0xFFFFFFFFFFFFFFFFFFFFFFFFFFFFFFFFFFFFFFFF AND MUL OR SWAP1 SSTORE POP SWAP1 POP POP PUSH1 0x1 SWAP1 POP SWAP6 SWAP5 POP POP POP POP POP JUMP JUMPDEST PUSH0 PUSH1 0x2 DUP1 SLOAD SWAP1 POP SWAP1 POP SWAP1 JUMP JUMPDEST PUSH0 DUP1 PUSH0 SWAP1 POP JUMPDEST PUSH1 0x2 DUP1 SLOAD SWAP1 POP DUP2 LT ISZERO PUSH2 0x983 JUMPI DUP3 PUSH20 0xFFFFFFFFFFFFFFFFFFFFFFFFFFFFFFFFFFFFFFFF AND PUSH1 0x2 DUP3 DUP2 SLOAD DUP2 LT PUSH2 0x92A JUMPI PUSH2 0x929 PUSH2 0x14ED JUMP JUMPDEST JUMPDEST SWAP1 PUSH0 MSTORE PUSH1 0x20 PUSH0 KECCAK256 ADD PUSH0 SWAP1 SLOAD SWAP1 PUSH2 0x100 EXP SWAP1 DIV PUSH20 0xFFFFFFFFFFFFFFFFFFFFFFFFFFFFFFFFFFFFFFFF AND PUSH20 0xFFFFFFFFFFFFFFFFFFFFFFFFFFFFFFFFFFFFFFFF AND SUB PUSH2 0x976 JUMPI DUP1 SWAP2 POP POP PUSH2 0x9BF JUMP JUMPDEST DUP1 DUP1 PUSH1 0x1 ADD SWAP2 POP POP PUSH2 0x8F2 JUMP JUMPDEST POP PUSH1 0x40 MLOAD PUSH32 0x8C379A000000000000000000000000000000000000000000000000000000000 DUP2 MSTORE PUSH1 0x4 ADD PUSH2 0x9B6 SWAP1 PUSH2 0x1564 JUMP JUMPDEST PUSH1 0x40 MLOAD DUP1 SWAP2 SUB SWAP1 REVERT JUMPDEST SWAP2 SWAP1 POP JUMP JUMPDEST PUSH1 0x2 DUP1 SLOAD SWAP1 POP DUP2 LT PUSH2 0xA0B JUMPI PUSH1 0x40 MLOAD PUSH32 0x8C379A000000000000000000000000000000000000000000000000000000000 DUP2 MSTORE PUSH1 0x4 ADD PUSH2 0xA02 SWAP1 PUSH2 0x15CC JUMP JUMPDEST PUSH1 0x40 MLOAD DUP1 SWAP2 SUB SWAP1 REVERT JUMPDEST PUSH0 DUP2 SWAP1 POP JUMPDEST PUSH1 0x1 PUSH1 0x2 DUP1 SLOAD SWAP1 POP PUSH2 0xA22 SWAP2 SWAP1 PUSH2 0x14BA JUMP JUMPDEST DUP2 LT ISZERO PUSH2 0xAD7 JUMPI PUSH1 0x2 PUSH1 0x1 DUP3 PUSH2 0xA38 SWAP2 SWAP1 PUSH2 0x15EA JUMP JUMPDEST DUP2 SLOAD DUP2 LT PUSH2 0xA49 JUMPI PUSH2 0xA48 PUSH2 0x14ED JUMP JUMPDEST JUMPDEST SWAP1 PUSH0 MSTORE PUSH1 0x20 PUSH0 KECCAK256 ADD PUSH0 SWAP1 SLOAD SWAP1 PUSH2 0x100 EXP SWAP1 DIV PUSH20 0xFFFFFFFFFFFFFFFFFFFFFFFFFFFFFFFFFFFFFFFF AND PUSH1 0x2 DUP3 DUP2 SLOAD DUP2 LT PUSH2 0xA85 JUMPI PUSH2 0xA84 PUSH2 0x14ED JUMP JUMPDEST JUMPDEST SWAP1 PUSH0 MSTORE PUSH1 0x20 PUSH0 KECCAK256 ADD PUSH0 PUSH2 0x100 EXP DUP2 SLOAD DUP2 PUSH20 0xFFFFFFFFFFFFFFFFFFFFFFFFFFFFFFFFFFFFFFFF MUL NOT AND SWAP1 DUP4 PUSH20 0xFFFFFFFFFFFFFFFFFFFFFFFFFFFFFFFFFFFFFFFF AND MUL OR SWAP1 SSTORE POP DUP1 DUP1 PUSH1 0x1 ADD SWAP2 POP POP PUSH2 0xA10 JUMP JUMPDEST POP PUSH1 0x2 DUP1 SLOAD DUP1 PUSH2 0xAEA JUMPI PUSH2 0xAE9 PUSH2 0x161D JUMP JUMPDEST JUMPDEST PUSH1 0x1 SWAP1 SUB DUP2 DUP2 SWAP1 PUSH0 MSTORE PUSH1 0x20 PUSH0 KECCAK256 ADD PUSH0 PUSH2 0x100 EXP DUP2 SLOAD SWAP1 PUSH20 0xFFFFFFFFFFFFFFFFFFFFFFFFFFFFFFFFFFFFFFFF MUL NOT AND SWAP1 SSTORE SWAP1 SSTORE POP JUMP JUMPDEST POP DUP1 SLOAD PUSH2 0xB2B SWAP1 PUSH2 0x11F1 JUMP JUMPDEST PUSH0 DUP3 SSTORE DUP1 PUSH1 0x1F LT PUSH2 0xB3C JUMPI POP PUSH2 0xB59 JUMP JUMPDEST PUSH1 0x1F ADD PUSH1 0x20 SWAP1 DIV SWAP1 PUSH0 MSTORE PUSH1 0x20 PUSH0 KECCAK256 SWAP1 DUP2 ADD SWAP1 PUSH2 0xB58 SWAP2 SWAP1 PUSH2 0xB5C JUMP JUMPDEST JUMPDEST POP JUMP JUMPDEST JUMPDEST DUP1 DUP3 GT ISZERO PUSH2 0xB73 JUMPI PUSH0 DUP2 PUSH0 SWAP1 SSTORE POP PUSH1 0x1 ADD PUSH2 0xB5D JUMP JUMPDEST POP SWAP1 JUMP JUMPDEST PUSH0 PUSH20 0xFFFFFFFFFFFFFFFFFFFFFFFFFFFFFFFFFFFFFFFF DUP3 AND SWAP1 POP SWAP2 SWAP1 POP JUMP JUMPDEST PUSH0 PUSH2 0xBA0 DUP3 PUSH2 0xB77 JUMP JUMPDEST SWAP1 POP SWAP2 SWAP1 POP JUMP JUMPDEST PUSH2 0xBB0 DUP2 PUSH2 0xB96 JUMP JUMPDEST DUP3 MSTORE POP POP JUMP JUMPDEST PUSH0 PUSH1 0x20 DUP3 ADD SWAP1 POP PUSH2 0xBC9 PUSH0 DUP4 ADD DUP5 PUSH2 0xBA7 JUMP JUMPDEST SWAP3 SWAP2 POP POP JUMP JUMPDEST PUSH0 PUSH1 0x40 MLOAD SWAP1 POP SWAP1 JUMP JUMPDEST PUSH0 DUP1 REVERT JUMPDEST PUSH0 DUP1 REVERT JUMPDEST PUSH2 0xBE9 DUP2 PUSH2 0xB96 JUMP JUMPDEST DUP2 EQ PUSH2 0xBF3 JUMPI PUSH0 DUP1 REVERT JUMPDEST POP JUMP JUMPDEST PUSH0 DUP2 CALLDATALOAD SWAP1 POP PUSH2 0xC04 DUP2 PUSH2 0xBE0 JUMP JUMPDEST SWAP3 SWAP2 POP POP JUMP JUMPDEST PUSH0 PUSH1 0x20 DUP3 DUP5 SUB SLT ISZERO PUSH2 0xC1F JUMPI PUSH2 0xC1E PUSH2 0xBD8 JUMP JUMPDEST JUMPDEST PUSH0 PUSH2 0xC2C DUP5 DUP3 DUP6 ADD PUSH2 0xBF6 JUMP JUMPDEST SWAP2 POP POP SWAP3 SWAP2 POP POP JUMP JUMPDEST PUSH0 DUP1 REVERT JUMPDEST PUSH0 DUP1 REVERT JUMPDEST PUSH0 PUSH1 0x1F NOT PUSH1 0x1F DUP4 ADD AND SWAP1 POP SWAP2 SWAP1 POP JUMP JUMPDEST PUSH32 0x4E487B7100000000000000000000000000000000000000000000000000000000 PUSH0 MSTORE PUSH1 0x41 PUSH1 0x4 MSTORE PUSH1 0x24 PUSH0 REVERT JUMPDEST PUSH2 0xC83 DUP3 PUSH2 0xC3D JUMP JUMPDEST DUP2 ADD DUP2 DUP2 LT PUSH8 0xFFFFFFFFFFFFFFFF DUP3 GT OR ISZERO PUSH2 0xCA2 JUMPI PUSH2 0xCA1 PUSH2 0xC4D JUMP JUMPDEST JUMPDEST DUP1 PUSH1 0x40 MSTORE POP POP POP JUMP JUMPDEST PUSH0 PUSH2 0xCB4 PUSH2 0xBCF JUMP JUMPDEST SWAP1 POP PUSH2 0xCC0 DUP3 DUP3 PUSH2 0xC7A JUMP JUMPDEST SWAP2 SWAP1 POP JUMP JUMPDEST PUSH0 PUSH8 0xFFFFFFFFFFFFFFFF DUP3 GT ISZERO PUSH2 0xCDF JUMPI PUSH2 0xCDE PUSH2 0xC4D JUMP JUMPDEST JUMPDEST PUSH2 0xCE8 DUP3 PUSH2 0xC3D JUMP JUMPDEST SWAP1 POP PUSH1 0x20 DUP2 ADD SWAP1 POP SWAP2 SWAP1 POP JUMP JUMPDEST DUP3 DUP2 DUP4 CALLDATACOPY PUSH0 DUP4 DUP4 ADD MSTORE POP POP POP JUMP JUMPDEST PUSH0 PUSH2 0xD15 PUSH2 0xD10 DUP5 PUSH2 0xCC5 JUMP JUMPDEST PUSH2 0xCAB JUMP JUMPDEST SWAP1 POP DUP3 DUP2 MSTORE PUSH1 0x20 DUP2 ADD DUP5 DUP5 DUP5 ADD GT ISZERO PUSH2 0xD31 JUMPI PUSH2 0xD30 PUSH2 0xC39 JUMP JUMPDEST JUMPDEST PUSH2 0xD3C DUP5 DUP3 DUP6 PUSH2 0xCF5 JUMP JUMPDEST POP SWAP4 SWAP3 POP POP POP JUMP JUMPDEST PUSH0 DUP3 PUSH1 0x1F DUP4 ADD SLT PUSH2 0xD58 JUMPI PUSH2 0xD57 PUSH2 0xC35 JUMP JUMPDEST JUMPDEST DUP2 CALLDATALOAD PUSH2 0xD68 DUP5 DUP3 PUSH1 0x20 DUP7 ADD PUSH2 0xD03 JUMP JUMPDEST SWAP2 POP POP SWAP3 SWAP2 POP POP JUMP JUMPDEST PUSH0 DUP1 PUSH0 DUP1 PUSH1 0x80 DUP6 DUP8 SUB SLT ISZERO PUSH2 0xD89 JUMPI PUSH2 0xD88 PUSH2 0xBD8 JUMP JUMPDEST JUMPDEST PUSH0 DUP6 ADD CALLDATALOAD PUSH8 0xFFFFFFFFFFFFFFFF DUP2 GT ISZERO PUSH2 0xDA6 JUMPI PUSH2 0xDA5 PUSH2 0xBDC JUMP JUMPDEST JUMPDEST PUSH2 0xDB2 DUP8 DUP3 DUP9 ADD PUSH2 0xD44 JUMP JUMPDEST SWAP5 POP POP PUSH1 0x20 DUP6 ADD CALLDATALOAD PUSH8 0xFFFFFFFFFFFFFFFF DUP2 GT ISZERO PUSH2 0xDD3 JUMPI PUSH2 0xDD2 PUSH2 0xBDC JUMP JUMPDEST JUMPDEST PUSH2 0xDDF DUP8 DUP3 DUP9 ADD PUSH2 0xD44 JUMP JUMPDEST SWAP4 POP POP PUSH1 0x40 DUP6 ADD CALLDATALOAD PUSH8 0xFFFFFFFFFFFFFFFF DUP2 GT ISZERO PUSH2 0xE00 JUMPI PUSH2 0xDFF PUSH2 0xBDC JUMP JUMPDEST JUMPDEST PUSH2 0xE0C DUP8 DUP3 DUP9 ADD PUSH2 0xD44 JUMP JUMPDEST SWAP3 POP POP PUSH1 0x60 DUP6 ADD CALLDATALOAD PUSH8 0xFFFFFFFFFFFFFFFF DUP2 GT ISZERO PUSH2 0xE2D JUMPI PUSH2 0xE2C PUSH2 0xBDC JUMP JUMPDEST JUMPDEST PUSH2 0xE39 DUP8 DUP3 DUP9 ADD PUSH2 0xD44 JUMP JUMPDEST SWAP2 POP POP SWAP3 SWAP6 SWAP2 SWAP5 POP SWAP3 POP JUMP JUMPDEST PUSH0 DUP2 SWAP1 POP SWAP2 SWAP1 POP JUMP JUMPDEST PUSH2 0xE57 DUP2 PUSH2 0xE45 JUMP JUMPDEST DUP3 MSTORE POP POP JUMP JUMPDEST PUSH0 PUSH1 0x20 DUP3 ADD SWAP1 POP PUSH2 0xE70 PUSH0 DUP4 ADD DUP5 PUSH2 0xE4E JUMP JUMPDEST SWAP3 SWAP2 POP POP JUMP JUMPDEST PUSH2 0xE7F DUP2 PUSH2 0xE45 JUMP JUMPDEST DUP2 EQ PUSH2 0xE89 JUMPI PUSH0 DUP1 REVERT JUMPDEST POP JUMP JUMPDEST PUSH0 DUP2 CALLDATALOAD SWAP1 POP PUSH2 0xE9A DUP2 PUSH2 0xE76 JUMP JUMPDEST SWAP3 SWAP2 POP POP JUMP JUMPDEST PUSH0 PUSH1 0x20 DUP3 DUP5 SUB SLT ISZERO PUSH2 0xEB5 JUMPI PUSH2 0xEB4 PUSH2 0xBD8 JUMP JUMPDEST JUMPDEST PUSH0 PUSH2 0xEC2 DUP5 DUP3 DUP6 ADD PUSH2 0xE8C JUMP JUMPDEST SWAP2 POP POP SWAP3 SWAP2 POP POP JUMP JUMPDEST PUSH0 DUP2 MLOAD SWAP1 POP SWAP2 SWAP1 POP JUMP JUMPDEST PUSH0 DUP3 DUP3 MSTORE PUSH1 0x20 DUP3 ADD SWAP1 POP SWAP3 SWAP2 POP POP JUMP JUMPDEST PUSH0 JUMPDEST DUP4 DUP2 LT ISZERO PUSH2 0xF02 JUMPI DUP1 DUP3 ADD MLOAD DUP2 DUP5 ADD MSTORE PUSH1 0x20 DUP2 ADD SWAP1 POP PUSH2 0xEE7 JUMP JUMPDEST PUSH0 DUP5 DUP5 ADD MSTORE POP POP POP POP JUMP JUMPDEST PUSH0 PUSH2 0xF17 DUP3 PUSH2 0xECB JUMP JUMPDEST PUSH2 0xF21 DUP2 DUP6 PUSH2 0xED5 JUMP JUMPDEST SWAP4 POP PUSH2 0xF31 DUP2 DUP6 PUSH1 0x20 DUP7 ADD PUSH2 0xEE5 JUMP JUMPDEST PUSH2 0xF3A DUP2 PUSH2 0xC3D JUMP JUMPDEST DUP5 ADD SWAP2 POP POP SWAP3 SWAP2 POP POP JUMP JUMPDEST PUSH0 PUSH1 0xA0 DUP3 ADD SWAP1 POP DUP2 DUP2 SUB PUSH0 DUP4 ADD MSTORE PUSH2 0xF5D DUP2 DUP9 PUSH2 0xF0D JUMP JUMPDEST SWAP1 POP DUP2 DUP2 SUB PUSH1 0x20 DUP4 ADD MSTORE PUSH2 0xF71 DUP2 DUP8 PUSH2 0xF0D JUMP JUMPDEST SWAP1 POP DUP2 DUP2 SUB PUSH1 0x40 DUP4 ADD MSTORE PUSH2 0xF85 DUP2 DUP7 PUSH2 0xF0D JUMP JUMPDEST SWAP1 POP DUP2 DUP2 SUB PUSH1 0x60 DUP4 ADD MSTORE PUSH2 0xF99 DUP2 DUP6 PUSH2 0xF0D JUMP JUMPDEST SWAP1 POP PUSH2 0xFA8 PUSH1 0x80 DUP4 ADD DUP5 PUSH2 0xBA7 JUMP JUMPDEST SWAP7 SWAP6 POP POP POP POP POP POP JUMP JUMPDEST PUSH0 DUP1 PUSH0 DUP1 PUSH0 PUSH1 0xA0 DUP7 DUP9 SUB SLT ISZERO PUSH2 0xFCB JUMPI PUSH2 0xFCA PUSH2 0xBD8 JUMP JUMPDEST JUMPDEST PUSH0 PUSH2 0xFD8 DUP9 DUP3 DUP10 ADD PUSH2 0xBF6 JUMP JUMPDEST SWAP6 POP POP PUSH1 0x20 DUP7 ADD CALLDATALOAD PUSH8 0xFFFFFFFFFFFFFFFF DUP2 GT ISZERO PUSH2 0xFF9 JUMPI PUSH2 0xFF8 PUSH2 0xBDC JUMP JUMPDEST JUMPDEST PUSH2 0x1005 DUP9 DUP3 DUP10 ADD PUSH2 0xD44 JUMP JUMPDEST SWAP5 POP POP PUSH1 0x40 DUP7 ADD CALLDATALOAD PUSH8 0xFFFFFFFFFFFFFFFF DUP2 GT ISZERO PUSH2 0x1026 JUMPI PUSH2 0x1025 PUSH2 0xBDC JUMP JUMPDEST JUMPDEST PUSH2 0x1032 DUP9 DUP3 DUP10 ADD PUSH2 0xD44 JUMP JUMPDEST SWAP4 POP POP PUSH1 0x60 DUP7 ADD CALLDATALOAD PUSH8 0xFFFFFFFFFFFFFFFF DUP2 GT ISZERO PUSH2 0x1053 JUMPI PUSH2 0x1052 PUSH2 0xBDC JUMP JUMPDEST JUMPDEST PUSH2 0x105F DUP9 DUP3 DUP10 ADD PUSH2 0xD44 JUMP JUMPDEST SWAP3 POP POP PUSH1 0x80 DUP7 ADD CALLDATALOAD PUSH8 0xFFFFFFFFFFFFFFFF DUP2 GT ISZERO PUSH2 0x1080 JUMPI PUSH2 0x107F PUSH2 0xBDC JUMP JUMPDEST JUMPDEST PUSH2 0x108C DUP9 DUP3 DUP10 ADD PUSH2 0xD44 JUMP JUMPDEST SWAP2 POP POP SWAP3 SWAP6 POP SWAP3 SWAP6 SWAP1 SWAP4 POP JUMP JUMPDEST PUSH0 DUP2 ISZERO ISZERO SWAP1 POP SWAP2 SWAP1 POP JUMP JUMPDEST PUSH2 0x10AD DUP2 PUSH2 0x1099 JUMP JUMPDEST DUP3 MSTORE POP POP JUMP JUMPDEST PUSH0 PUSH1 0x20 DUP3 ADD SWAP1 POP PUSH2 0x10C6 PUSH0 DUP4 ADD DUP5 PUSH2 0x10A4 JUMP JUMPDEST SWAP3 SWAP2 POP POP JUMP JUMPDEST PUSH32 0x496E76616C696420616464726573730000000000000000000000000000000000 PUSH0 DUP3 ADD MSTORE POP JUMP JUMPDEST PUSH0 PUSH2 0x1100 PUSH1 0xF DUP4 PUSH2 0xED5 JUMP JUMPDEST SWAP2 POP PUSH2 0x110B DUP3 PUSH2 0x10CC JUMP JUMPDEST PUSH1 0x20 DUP3 ADD SWAP1 POP SWAP2 SWAP1 POP JUMP JUMPDEST PUSH0 PUSH1 0x20 DUP3 ADD SWAP1 POP DUP2 DUP2 SUB PUSH0 DUP4 ADD MSTORE PUSH2 0x112D DUP2 PUSH2 0x10F4 JUMP JUMPDEST SWAP1 POP SWAP2 SWAP1 POP JUMP JUMPDEST PUSH0 DUP2 SWAP1 POP SWAP2 SWAP1 POP JUMP JUMPDEST PUSH2 0x114E PUSH2 0x1149 DUP3 PUSH2 0xE45 JUMP JUMPDEST PUSH2 0x1134 JUMP JUMPDEST DUP3 MSTORE POP POP JUMP JUMPDEST PUSH0 DUP2 PUSH1 0x60 SHL SWAP1 POP SWAP2 SWAP1 POP JUMP JUMPDEST PUSH0 PUSH2 0x116A DUP3 PUSH2 0x1154 JUMP JUMPDEST SWAP1 POP SWAP2 SWAP1 POP JUMP JUMPDEST PUSH0 PUSH2 0x117B DUP3 PUSH2 0x1160 JUMP JUMPDEST SWAP1 POP SWAP2 SWAP1 POP JUMP JUMPDEST PUSH2 0x1193 PUSH2 0x118E DUP3 PUSH2 0xB96 JUMP JUMPDEST PUSH2 0x1171 JUMP JUMPDEST DUP3 MSTORE POP POP JUMP JUMPDEST PUSH0 PUSH2 0x11A4 DUP3 DUP6 PUSH2 0x113D JUMP JUMPDEST PUSH1 0x20 DUP3 ADD SWAP2 POP PUSH2 0x11B4 DUP3 DUP5 PUSH2 0x1182 JUMP JUMPDEST PUSH1 0x14 DUP3 ADD SWAP2 POP DUP2 SWAP1 POP SWAP4 SWAP3 POP POP POP JUMP JUMPDEST PUSH32 0x4E487B7100000000000000000000000000000000000000000000000000000000 PUSH0 MSTORE PUSH1 0x22 PUSH1 0x4 MSTORE PUSH1 0x24 PUSH0 REVERT JUMPDEST PUSH0 PUSH1 0x2 DUP3 DIV SWAP1 POP PUSH1 0x1 DUP3 AND DUP1 PUSH2 0x1208 JUMPI PUSH1 0x7F DUP3 AND SWAP2 POP JUMPDEST PUSH1 0x20 DUP3 LT DUP2 SUB PUSH2 0x121B JUMPI PUSH2 0x121A PUSH2 0x11C4 JUMP JUMPDEST JUMPDEST POP SWAP2 SWAP1 POP JUMP JUMPDEST PUSH0 DUP2 SWAP1 POP DUP2 PUSH0 MSTORE PUSH1 0x20 PUSH0 KECCAK256 SWAP1 POP SWAP2 SWAP1 POP JUMP JUMPDEST PUSH0 PUSH1 0x20 PUSH1 0x1F DUP4 ADD DIV SWAP1 POP SWAP2 SWAP1 POP JUMP JUMPDEST PUSH0 DUP3 DUP3 SHL SWAP1 POP SWAP3 SWAP2 POP POP JUMP JUMPDEST PUSH0 PUSH1 0x8 DUP4 MUL PUSH2 0x127D PUSH32 0xFFFFFFFFFFFFFFFFFFFFFFFFFFFFFFFFFFFFFFFFFFFFFFFFFFFFFFFFFFFFFFFF DUP3 PUSH2 0x1242 JUMP JUMPDEST PUSH2 0x1287 DUP7 DUP4 PUSH2 0x1242 JUMP JUMPDEST SWAP6 POP DUP1 NOT DUP5 AND SWAP4 POP DUP1 DUP7 AND DUP5 OR SWAP3 POP POP POP SWAP4 SWAP3 POP POP POP JUMP JUMPDEST PUSH0 DUP2 SWAP1 POP SWAP2 SWAP1 POP JUMP JUMPDEST PUSH0 PUSH2 0x12C2 PUSH2 0x12BD PUSH2 0x12B8 DUP5 PUSH2 0xE45 JUMP JUMPDEST PUSH2 0x129F JUMP JUMPDEST PUSH2 0xE45 JUMP JUMPDEST SWAP1 POP SWAP2 SWAP1 POP JUMP JUMPDEST PUSH0 DUP2 SWAP1 POP SWAP2 SWAP1 POP JUMP JUMPDEST PUSH2 0x12DB DUP4 PUSH2 0x12A8 JUMP JUMPDEST PUSH2 0x12EF PUSH2 0x12E7 DUP3 PUSH2 0x12C9 JUMP JUMPDEST DUP5 DUP5 SLOAD PUSH2 0x124E JUMP JUMPDEST DUP3 SSTORE POP POP POP POP JUMP JUMPDEST PUSH0 SWAP1 JUMP JUMPDEST PUSH2 0x1303 PUSH2 0x12F7 JUMP JUMPDEST PUSH2 0x130E DUP2 DUP5 DUP5 PUSH2 0x12D2 JUMP JUMPDEST POP POP POP JUMP JUMPDEST JUMPDEST DUP2 DUP2 LT ISZERO PUSH2 0x1331 JUMPI PUSH2 0x1326 PUSH0 DUP3 PUSH2 0x12FB JUMP JUMPDEST PUSH1 0x1 DUP2 ADD SWAP1 POP PUSH2 0x1314 JUMP JUMPDEST POP POP JUMP JUMPDEST PUSH1 0x1F DUP3 GT ISZERO PUSH2 0x1376 JUMPI PUSH2 0x1347 DUP2 PUSH2 0x1221 JUMP JUMPDEST PUSH2 0x1350 DUP5 PUSH2 0x1233 JUMP JUMPDEST DUP2 ADD PUSH1 0x20 DUP6 LT ISZERO PUSH2 0x135F JUMPI DUP2 SWAP1 POP JUMPDEST PUSH2 0x1373 PUSH2 0x136B DUP6 PUSH2 0x1233 JUMP JUMPDEST DUP4 ADD DUP3 PUSH2 0x1313 JUMP JUMPDEST POP POP JUMPDEST POP POP POP JUMP JUMPDEST PUSH0 DUP3 DUP3 SHR SWAP1 POP SWAP3 SWAP2 POP POP JUMP JUMPDEST PUSH0 PUSH2 0x1396 PUSH0 NOT DUP5 PUSH1 0x8 MUL PUSH2 0x137B JUMP JUMPDEST NOT DUP1 DUP4 AND SWAP2 POP POP SWAP3 SWAP2 POP POP JUMP JUMPDEST PUSH0 PUSH2 0x13AE DUP4 DUP4 PUSH2 0x1387 JUMP JUMPDEST SWAP2 POP DUP3 PUSH1 0x2 MUL DUP3 OR SWAP1 POP SWAP3 SWAP2 POP POP JUMP JUMPDEST PUSH2 0x13C7 DUP3 PUSH2 0xECB JUMP JUMPDEST PUSH8 0xFFFFFFFFFFFFFFFF DUP2 GT ISZERO PUSH2 0x13E0 JUMPI PUSH2 0x13DF PUSH2 0xC4D JUMP JUMPDEST JUMPDEST PUSH2 0x13EA DUP3 SLOAD PUSH2 0x11F1 JUMP JUMPDEST PUSH2 0x13F5 DUP3 DUP3 DUP6 PUSH2 0x1335 JUMP JUMPDEST PUSH0 PUSH1 0x20 SWAP1 POP PUSH1 0x1F DUP4 GT PUSH1 0x1 DUP2 EQ PUSH2 0x1426 JUMPI PUSH0 DUP5 ISZERO PUSH2 0x1414 JUMPI DUP3 DUP8 ADD MLOAD SWAP1 POP JUMPDEST PUSH2 0x141E DUP6 DUP3 PUSH2 0x13A3 JUMP JUMPDEST DUP7 SSTORE POP PUSH2 0x1485 JUMP JUMPDEST PUSH1 0x1F NOT DUP5 AND PUSH2 0x1434 DUP7 PUSH2 0x1221 JUMP JUMPDEST PUSH0 JUMPDEST DUP3 DUP2 LT ISZERO PUSH2 0x145B JUMPI DUP5 DUP10 ADD MLOAD DUP3 SSTORE PUSH1 0x1 DUP3 ADD SWAP2 POP PUSH1 0x20 DUP6 ADD SWAP5 POP PUSH1 0x20 DUP2 ADD SWAP1 POP PUSH2 0x1436 JUMP JUMPDEST DUP7 DUP4 LT ISZERO PUSH2 0x1478 JUMPI DUP5 DUP10 ADD MLOAD PUSH2 0x1474 PUSH1 0x1F DUP10 AND DUP3 PUSH2 0x1387 JUMP JUMPDEST DUP4 SSTORE POP JUMPDEST PUSH1 0x1 PUSH1 0x2 DUP9 MUL ADD DUP9 SSTORE POP POP POP JUMPDEST POP POP POP POP POP POP JUMP JUMPDEST PUSH32 0x4E487B7100000000000000000000000000000000000000000000000000000000 PUSH0 MSTORE PUSH1 0x11 PUSH1 0x4 MSTORE PUSH1 0x24 PUSH0 REVERT JUMPDEST PUSH0 PUSH2 0x14C4 DUP3 PUSH2 0xE45 JUMP JUMPDEST SWAP2 POP PUSH2 0x14CF DUP4 PUSH2 0xE45 JUMP JUMPDEST SWAP3 POP DUP3 DUP3 SUB SWAP1 POP DUP2 DUP2 GT ISZERO PUSH2 0x14E7 JUMPI PUSH2 0x14E6 PUSH2 0x148D JUMP JUMPDEST JUMPDEST SWAP3 SWAP2 POP POP JUMP JUMPDEST PUSH32 0x4E487B7100000000000000000000000000000000000000000000000000000000 PUSH0 MSTORE PUSH1 0x32 PUSH1 0x4 MSTORE PUSH1 0x24 PUSH0 REVERT JUMPDEST PUSH32 0x4E6F7420466F756E640000000000000000000000000000000000000000000000 PUSH0 DUP3 ADD MSTORE POP JUMP JUMPDEST PUSH0 PUSH2 0x154E PUSH1 0x9 DUP4 PUSH2 0xED5 JUMP JUMPDEST SWAP2 POP PUSH2 0x1559 DUP3 PUSH2 0x151A JUMP JUMPDEST PUSH1 0x20 DUP3 ADD SWAP1 POP SWAP2 SWAP1 POP JUMP JUMPDEST PUSH0 PUSH1 0x20 DUP3 ADD SWAP1 POP DUP2 DUP2 SUB PUSH0 DUP4 ADD MSTORE PUSH2 0x157B DUP2 PUSH2 0x1542 JUMP JUMPDEST SWAP1 POP SWAP2 SWAP1 POP JUMP JUMPDEST PUSH32 0x496E646578206F7574206F6620626F756E647300000000000000000000000000 PUSH0 DUP3 ADD MSTORE POP JUMP JUMPDEST PUSH0 PUSH2 0x15B6 PUSH1 0x13 DUP4 PUSH2 0xED5 JUMP JUMPDEST SWAP2 POP PUSH2 0x15C1 DUP3 PUSH2 0x1582 JUMP JUMPDEST PUSH1 0x20 DUP3 ADD SWAP1 POP SWAP2 SWAP1 POP JUMP JUMPDEST PUSH0 PUSH1 0x20 DUP3 ADD SWAP1 POP DUP2 DUP2 SUB PUSH0 DUP4 ADD MSTORE PUSH2 0x15E3 DUP2 PUSH2 0x15AA JUMP JUMPDEST SWAP1 POP SWAP2 SWAP1 POP JUMP JUMPDEST PUSH0 PUSH2 0x15F4 DUP3 PUSH2 0xE45 JUMP JUMPDEST SWAP2 POP PUSH2 0x15FF DUP4 PUSH2 0xE45 JUMP JUMPDEST SWAP3 POP DUP3 DUP3 ADD SWAP1 POP DUP1 DUP3 GT ISZERO PUSH2 0x1617 JUMPI PUSH2 0x1616 PUSH2 0x148D JUMP JUMPDEST JUMPDEST SWAP3 SWAP2 POP POP JUMP JUMPDEST PUSH32 0x4E487B7100000000000000000000000000000000000000000000000000000000 PUSH0 MSTORE PUSH1 0x31 PUSH1 0x4 MSTORE PUSH1 0x24 PUSH0 REVERT INVALID LOG2 PUSH5 0x6970667358 0x22 SLT KECCAK256 0xC0 DUP5 DIV 0xF6 SHL 0xB7 KECCAK256 0xA7 0xB1 0xBF 0xC6 LOG4 0x2C 0x1F PUSH29 0x720DC6AFA5A704A20E76DF9BEC2BFC2E1A64736F6C6343000817003300 "},"gasEstimates":{"creation":{"codeDepositCost":"1152000","executionCost":"25457","totalCost":"1177457"},"external":{"createUser(string,string,string,string)":"infinite","deleteUser(address)":"infinite","getUserCount()":"2506","manager()":"2506","updateUser(address,string,string,string,string)":"infinite","userList(uint256)":"4944","users(address)":"infinite"},"internal":{"indexOf(address)":"infinite","remove(uint256)":"infinite"}},"methodIdentifiers":{"createUser(string,string,string,string)":"6f7fcddb","deleteUser(address)":"5c60f226","getUserCount()":"b5cb15f7","manager()":"481c6a75","updateUser(address,string,string,string,string)":"ada44796","userList(uint256)":"9f4216e8","users(address)":"a87430ba"}},"storageLayout":{"storage":[{"astId":3,"contract":"main:Contract","label":"manager","offset":0,"slot":"0","type":"t_address"},{"astId":19,"contract":"main:Contract","label":"users","offset":0,"slot":"1","type":"t_mapping(t_address,t_struct(UserData)14_storage)"},{"astId":22,"contract":"main:Contract","label":"userList","offset":0,"slot":"2","type":"t_array(t_address)dyn_storage"}],"types":{"t_address":{"encoding":"inplace","label":"address","numberOfBytes":"20"},"t_array(t_address)dyn_storage":{"base":"t_address","encoding":"dynamic_array","label":"address[]","numberOfBytes":"32"},"t_mapping(t_address,t_struct(UserData)14_storage)":{"encoding":"mapping","key":"t_address","label":"mapping(address => struct Contract.UserData)","numberOfBytes":"32","value":"t_struct(UserData)14_storage"},"t_string_storage":{"encoding":"bytes","label":"string","numberOfBytes":"32"},"t_struct(UserData)14_storage":{"encoding":"inplace","label":"struct Contract.UserData","members":[{"astId":5,"contract":"main:Contract","label":"name","offset":0,"slot":"0","type":"t_string_storage"},{"astId":7,"contract":"main:Contract","label":"email","offset":0,"slot":"1","type":"t_string_storage"},{"astId":9,"contract":"main:Contract","label":"phone","offset":0,"slot":"2","type":"t_string_storage"},{"astId":11,"contract":"main:Contract","label":"publicKey","offset":0,"slot":"3","type":"t_string_storage"},{"astId":13,"contract":"main:Contract","label":"userAddress","offset":0,"slot":"4","type":"t_address"}],"numberOfBytes":"160"}}},"userdoc":{"kind":"user","methods":{},"version":1}}